:100000000C9434000C9483000C94B3000C94E30023
:100010000C9451000C9453000C9451000C9451001A
:100020000C9451000C9451000C9451000C9451000C
:100030000C9451000C9451000C9451000C945100FC
:100040000C9451000C9451000C9451000C945100EC
:100050000C9451000C9451000C9451000C945100DC
:100060000C9451000C94510011241FBECFEFD4E02A
:10007000DEBFCDBF11E0A0E0B1E0ECECF2E102C0E8
:1000800005900D92A230B107D9F711E0A2E0B1E0DE
:1000900001C01D92A936B107E1F70E9412090C9424
:1000A00064090C9400001F920F920FB60F92112456
:1000B0002F933F938F939F93499B09C08091840016
:1000C0009091850090934B0180934A0113C081E089
:1000D00080935601809184009091850020914A017F
:1000E00030914B01821B930B90935A0180935901DD
:1000F000109256019F918F913F912F910F900FBEBB
:100100000F901F9018951F920F920FB60F92112407
:100110002F933F938F939F934A9B09C080918400B4
:1001200090918500909328018093270113C081E06E
:100130008093560180918400909185002091270141
:1001400030912801821B930B9093400180933F01D3
:10015000109256019F918F913F912F910F900FBE5A
:100160000F901F9018951F920F920FB60F921124A7
:100170002F933F938F939F934B9B09C08091840053
:1001800090918500909336018093350113C081E0F2
:1001900080935601809184009091850020913501D3
:1001A00030913601821B930B90935501809354013B
:1001B000109256019F918F913F912F910F900FBEFA
:1001C0000F901F9018951F920F920FB60F92112447
:1001D0002F933F938F939F931F9B09C0809184001F
:1001E00090918500909353018093520113C081E058
:1001F0008093560180918400909185002091520156
:1002000030915301821B930B90932A018093290113
:10021000109256019F918F913F912F910F900FBE99
:100220000F901F9018958FE380937E0010927B00B3
:10023000089583E080937C0086EC80937A0080911F
:100240007A0086FDFCCF209178004091790080E013
:1002500094E0821B9109342F20E0821B930B909332
:100260004D0180934C016AE070E00E941709709381
:100270003A016093390184E080937C0086EC80939E
:100280007A0080917A0086FDFCCF20917800409121
:10029000790080E094E0821B9109342F20E0821BDA
:1002A000930B90934F0180934E016AE070E00E949F
:1002B000170970933C0160933B0185E080937C00BB
:1002C00086EC80937A0080917A0086FDFCCF2091A5
:1002D00078004091790080E094E0821B9109342FEE
:1002E00020E0821B930B90935101809350016AE0B0
:1002F00070E00E94170970933E0160933D010895DC
:1003000080937C0086EC80937A0080917A0086FD51
:10031000FCCF0895482F82E080937C0086EC809388
:100320007A0080917A0086FDFCCF30917800209190
:100330007900922F80E0BC01630F711D9B017093C7
:100340001F0160931E01442351F480910401909198
:100350000501281B390B30931F0120931E0181E0FA
:1003600080937C0086EC80937A0080917A0086FDF1
:10037000FCCF3091780020917900922F80E0BC0171
:10038000630F711D9B017093210160932001442331
:1003900051F48091060190910701281B390B30938D
:1003A00021012093200110927C0086EC80937A003A
:1003B00080917A0086FDFCCF309178002091790001
:1003C000922F80E0BC01630F711D9B01709323018C
:1003D00060932201442351F4809108019091090116
:1003E000281B390B309323012093220108951F937A
:1003F0000E94190110920501109204011092070148
:1004000010920601109209011092080110E081E09B
:100410000E948A01609104017091050180911E0182
:1004200090911F01680F791F70930501609304017B
:100430004091060150910701809120019091210186
:10044000480F591F5093070140930601209108015E
:10045000309109018091220190912301280F391FC9
:1004600030930901209308011F5F103281F6E5E007
:1004700075956795EA95E1F770930501609304011E
:1004800095E0559547959A95E1F75093070140936C
:10049000060185E0359527958A95E1F730930901A6
:1004A0002093080181E08093260182E390E09093FD
:1004B0003401809333011F91089580915601882360
:1004C000E1F78091590190915A0120916101309199
:1004D0006201821B930B95958795959587959093CF
:1004E0002C0180932B01809156018823E1F78091A4
:1004F0003F01909140012091630130916401821B82
:10050000930B959587959595879590934801809342
:100510004701809156018823E1F780915401909121
:1005200055012091650130916601821B930BA3E078
:1005300095958795AA95E1F790931D0180931C01ED
:10054000809156018823E1F78091290190912A0139
:100550002091670130916801821B930B90931701E2
:1005600080931601959587959595879590932E0183
:1005700080932D0108951F9380910A01882309F427
:1005800001C1809124019091250197FF05C010922F
:1005900025011092240109C08536910534F084E6C6
:1005A00090E0909325018093240180912F019091F8
:1005B000300197FF05C01092300110922F0109C041
:1005C0008536910534F084E690E090933001809375
:1005D0002F01809143019091440197FF05C0109233
:1005E00044011092430109C08536910534F084E638
:1005F00090E0909344018093430180913701909162
:10060000380197FF05C0109238011092370109C0D8
:100610008536910534F084E690E09093380180931C
:100620003701809157019091580197FF05C01092B2
:1006300058011092570109C08536910534F084E6BF
:1006400090E090935801809357018091840090919D
:1006500085002091130130911401821B930B90931C
:10066000120180931101A89816BC6AE070E00E9404
:100670001709162F1F5F10930C01212F332727FD19
:10068000309584E690E0821B930B90931001809349
:100690000F016091240170912501680F791FA091CD
:1006A0002F01B0913001A80FB91FE0914301F091E3
:1006B0004401E80FF91F4091370150913801480F6C
:1006C000591F2091570130915801280F391FA898C0
:1006D00016BC26C086B58035E8F386B5805586BD44
:1006E0006115710521F06150704009F42A98109746
:1006F00019F0119709F42998309719F0319709F4F6
:1007000028984115510521F04150504009F45F9857
:100710002115310521F02150304009F45E981F5F0A
:10072000183CC0F27093250160932401B09330010E
:10073000A0932F01F0934401E093430150933801BB
:1007400040933701309358012093570110931501BE
:10075000209100013091010121503040A89816BC31
:1007600008C086B58035E8F386B5805586BD215032
:10077000304021153105A9F78FEF9FEF90930E01BF
:1007800080930D0180914901882309F180918400B3
:1007900090918500909314018093130151E0509340
:1007A0000A012A9A299A289A40910B01242F30E0B5
:1007B00080910201909103012817390729F45F9A6B
:1007C0005E9A50930B0103C04F5F40930B011F9142
:1007D000089581E080935E0180935F011092600133
:1007E00020EF35E030936201209361013093640182
:1007F0002093630180E694E0909366018093650105
:100800003093680120936701089508C0000000003C
:100810000000000000000000000081508823B1F7B4
:1008200008951F93CF93DF93EC0108C010E084E696
:100830000E9405041F5F1A30D1F721972097B1F766
:10084000DF91CF911F910895CF92DF92EF92FF92A7
:100850000F931F93CF93DF930E945D0280911C0141
:1008600090911D0197FF43C12091B2008091180122
:10087000281B8091190190911A01820F911D90936C
:100880001A01809319018091B20080931801209180
:10089000490180912D0190912E01222319F4CC97CA
:1008A0007CF003C0855C9F4F5CF480914701909180
:1008B000480197FF03C0909581959F4F4F9724F073
:1008C00010921A01109219018091190190911A0148
:1008D00083549F4010F181E08227809349012E9834
:1008E00010925C0110925B018823A1F00E94F70135
:1008F00010920A012E9A82E390E090934201809335
:10090000410190933201809331019093460180938D
:1009100045016DC280910A0166C2222309F448C0D4
:1009200080912D0190912E01845C9F4F0CF040C06E
:100930008091470190914801CD97D4F180915B015E
:1009400090915C01892B59F58FE69EEF90935C01A5
:1009500080935B010E94F70110920A0186E990E002
:100960000E94110482E390E0909342018093410140
:100970009093320180933101909346018093450119
:1009800010921B012E9889E190E00E9411042E9A8A
:1009900089E190E00E94110481E080931B01809125
:1009A0005B0190915C01019690935C0180935B01E7
:1009B00080914901882309F44DC080912D019091C7
:1009C0002E01845C9F4F0CF045C0809147019091AF
:1009D0004801845C9F4FF4F580915B0190915C012C
:1009E000892B79F58FE69EEF90935C0180935B01F4
:1009F0000E94F70110920A0184E690E00E9411041F
:100A000086E490E0909342018093410190933201FB
:100A100080933101909346018093450110921B0110
:100A200010E00BC02E9889E190E00E9411042E9AEC
:100A300089E190E00E9411041F5F123098F3109337
:100A40001B0180915B0190915C01019690935C0188
:100A500080935B0180914901882309F448C080910B
:100A60002D0190912E01CD970CF441C0809147014A
:100A700090914801845C9F4FD4F580915B019091E7
:100A80005C01892B59F58FE69EEF90935C01809372
:100A90005B010E94F70110920A0182E390E09093BB
:100AA00042018093410190933201809331018AE5A4
:100AB00090E0909346018093450110E00BC02E9882
:100AC00089E190E00E9411042E9A89E190E00E9451
:100AD00011041F5F143098F310931B0180915B0188
:100AE00090915C01019690935C0180935B0180E0A2
:100AF0000E948A0180911C0190911D018B35910506
:100B000034F08AE590E090931D0180931C01E09001
:100B10001C01F0901D012091390130913A01C90169
:100B2000880F991F820F931F20911E0130911F0182
:100B3000AC01429FC001439F900D529F900D112424
:100B400068EC70E00E942B09FB0170931F01609319
:100B50001E01209141013091420180912B01909121
:100B60002C01AC01249FC001259F900D349F900D56
:100B7000112464E670E00E942B099B0180915E01C4
:100B8000882339F4E60FF71FF0932C01E0932B0133
:100B900006C02E1B3F0B30932C0120932B0120917C
:100BA0002B0130912C0184E190E0AC01249FC00125
:100BB000259F900D349F900D112467E170E00E94F5
:100BC0002B09EB0170932C0160932B0120913B01C9
:100BD00030913C01C901880F991F820F931F20910A
:100BE000200130912101AC01429FC001439F900D33
:100BF000529F900D112468EC70E00E942B09FB01BC
:100C000070932101609320012091310130913201D4
:100C10008091470190914801AC01249FC001259F1C
:100C2000900D349F900D112464E670E00E942B0912
:100C30009B0180915F01882339F4E60FF71FF09341
:100C40004801E093470106C02E1B3F0B309348013B
:100C50002093470180914701909148016701C81A8C
:100C6000D90AD0924401C0924301959587959093FB
:100C70004801809347018E0D9F1D8C010C0F1D1F95
:100C800010932501009324019C012C1B3D0BE901CD
:100C90003093300120932F0120913D0130913E018E
:100CA000C901880F991F820F931F20912201309153
:100CB0002301AC01429FC001439F900D529F900DB4
:100CC000112468EC70E00E942B09FB017093230152
:100CD00060932201209145013091460180912D01C0
:100CE00090912E01AC01249FC001259F900D349F4F
:100CF000900D112464E670E00E942B099B01809105
:100D00006001882339F4E60FF71FF0932E01E0937A
:100D10002D0106C02E1B3F0B30932E0120932D0179
:100D2000809133019091340120912D0130912E0159
:100D3000281B390B43E0359527954A95E1F7309309
:100D40002E0120932D01280F391F30933401209359
:100D5000330182E390E0821B930B909338018093E0
:100D6000370190935801809357010A30110534F4EC
:100D70008AE090E090932501809324012A9734F42F
:100D80008AE090E09093300180932F015AE0C516DD
:100D9000D10434F48AE090E09093440180934301BD
:100DA0001E141F0444F480914901882321F080918E
:100DB00026018823B1F4109225011092240110928B
:100DC000300110922F01109244011092430182E3EE
:100DD00090E090933801809337019093580180936D
:100DE000570180914901882311F00E94BB02DF91D5
:100DF000CF911F910F91FF90EF90DF90CF900895CA
:100E00001F93CF93DF93EC01162F0E944E09811799
:100E100021F0CE01612F0E945609DF91CF911F91E1
:100E20000895CF92DF92EF92FF920F931F93CF938B
:100E3000DF938C016B017A01C0E0D0E009C0C601EC
:100E40008C0F9D1FF80161918F010E940007219670
:100E5000CE15DF05A0F3DF91CF911F910F91FF9089
:100E6000EF90DF90CF900895F8948DE591E060E0E9
:100E700070E04CE050E00E9411077894089580E003
:100E800090E00E944E09873441F087E480935D0131
:100E90000E94E9030E94340708958DE591E060E027
:100EA00070E04CE050E00E943E090895CF92DF923E
:100EB000EF92FF920F931F93CF93DF9385B78061DB
:100EC00085BF5198529853982798389839983A98EE
:100ED0003D983C983B98229A219A209A579A569A84
:100EE000269A2E9849984A984B981F9880916800A6
:100EF00081608093680080916800846080936800BE
:100F000080916B00806880936B0080916D0082609F
:100F100080936D0085E08093690083E08DBB8CB386
:100F200083608CBB14BC81E085BD10926E00109272
:100F3000800082E0809381001092B00087E080936F
:100F4000B1001092700017BA1092B20021E030E0A8
:100F5000F901319680E991E0B9010E9417096333E4
:100F6000710510F09F01F4CF30930301209302012B
:100F700082E390E090933401809333010E943F0715
:100F80008FE380937E0010927B00109226011092D6
:100F900049011092560180916101909162019093F4
:100FA0005A0180935901809163019091640190935B
:100FB000400180933F01809165019091660190937B
:100FC000550180935401809167019091680190933D
:100FD0002A01809329012E9A86E990E00E9411044B
:100FE0002E9878948CED95E00E9411040E941901CE
:100FF0000E94190180914E0190914F01C39708F012
:101000006DC080914C0190914D01C39748F480913F
:10101000500190915101C39718F40E94E903FFCF4A
:1010200010926201109261011092640110926301AA
:101030001092680110926701C0E0D0E02E9A89E119
:1010400090E00E9411042E9889E190E00E94110422
:101050002196C330D10591F786EA9EE00E941104E3
:10106000EE24FF2400E010E0CC24DD24C0E0D0E03A
:101070000E945D0280912B0190912C01E80EF91ED7
:101080008091470190914801080F191F80912D010F
:1010900090912E01C80ED91E84E690E00E941104A2
:1010A0002196C430D10521F7F0926201E0926101EE
:1010B000109364010093630180E694E090936601CD
:1010C00080936501D0926801C09267010E94340745
:1010D0002E9A86E990E00E9411042E9880914C018E
:1010E00090914D01C39708F050C0C0E0D0E02E9A17
:1010F00089E190E00E9411042E9889E190E00E941D
:1011000011042196C330D10591F711E00E945D02D0
:1011100080912B0190912C01825E9F4F2CF41092B4
:101120005E010E9434072E9A80912B0190912C0130
:101130004F971CF010935E011FC080914701909162
:1011400048012FEF823E92071CF410925F0114C0F9
:101150004F971CF010935F010FC080912D0190916B
:101160002E012FEF823E92071CF41092600104C002
:101170004F972CF0109360010E9434072E9A82E35F
:1011800090E00E9411042E98C1CF8091500190915F
:101190005101C397F0F5C0E0D0E02E9A89E190E0CC
:1011A0000E9411042E9889E190E00E94110421967A
:1011B000C330D10591F781E08093490188E097E041
:1011C000909301018093000181E090E090930301EE
:1011D00080930201C2E3D0E00E945D0280911C0175
:1011E00090911D01909325018093240190933001EB
:1011F00080932F019093440180934301D093380151
:10120000C0933701D0935801C09357010E94BB028D
:10121000E3CFDF91CF911F910F91FF90EF90DF907F
:10122000CF9008950E9456070E942404FDCFAA1B68
:10123000BB1B51E107C0AA1FBB1FA617B70710F0C1
:10124000A61BB70B881F991F5A95A9F780959095F3
:10125000BC01CD01089597FB092E07260AD077FD22
:1012600004D0E5DF06D000201AF4709561957F4F19
:101270000895F6F7909581959F4F0895DC01CB0175
:10128000FC01F999FECF06C0F2BDE1BDF89A319696
:1012900000B40D9241505040B8F70895F999FECF2F
:1012A00092BD81BDF89A992780B50895262FF999A6
:1012B000FECF1FBA92BD81BD20BD0FB6F894FA9A39
:0C12C000F99A0FBE01960895F894FFCF34
:0212CC003200EE
:00000001FF
