:100000000C94A6000C94CE000C94CE000C94CE0060
:100010000C94CE000C94CE000C94CE000C94CE0028
:100020000C94CE000C94CE000C94CE000C94CE0018
:100030000C94CE000C94CE000C94CE000C94CE0008
:100040000C94E80D0C94CE000C945E0F0C94CE0032
:100050000C94CE000C94CE000C94CE000C94CE00E8
:100060000C94CE000C94CE00084AD73B3BCE016ED8
:1000700084BCBFFDC12F3D6C74319ABD56833DDAFF
:100080003D00C77F11BED9E4BB4C3E916BAAAABE0E
:10009000000000803F05A84CCDB2D44EB93836A937
:1000A000020C50B9918688083CA6AAAA2ABE000074
:1000B00000803F00000000240027002A000000000C
:1000C00000250028002B0000000000230026002946
:1000D00000040404040404040402020202020203F1
:1000E00003030303030102040810204080010204FB
:1000F000081020010204081020000000070002017F
:1001000000000304060000000000000000494E4605
:10011000494E4954594E414ECDCCCC3D0AD7233C93
:1001200017B7D13877CC2B329595E6241FB14F0AFB
:10013000000020410000C84200401C4620BCBE4CCC
:10014000CA1B0E5AAEC59D744905E31011241FBE8B
:10015000CFEFD8E0DEBFCDBF12E0A0E0B1E0EEEE21
:10016000FDE202C005900D92A039B107D9F714E065
:10017000A0E9B2E001C01D92AF37B107E1F711E08D
:10018000CCE4D1E004C02297FE010E94AF16C8342F
:10019000D107C9F70E94E10D0C94F5160C940000EC
:1001A000662777270C94AA01FC0188279927E894F1
:1001B00021912032E9F3293010F02E30C8F32B3290
:1001C00041F02D3239F4689404C00E94A201820FDC
:1001D000911D219120532A30C0F31EF490958195F2
:1001E0009F4F08951F93FC0199278827BC01E8942D
:1001F00011911032E9F3193010F01E30C8F31B32A0
:1002000051F01D3249F4689406C00E948D01610FBF
:10021000711D811D911D119110531A30B0F33EF4E0
:1002200090958095709561957F4F8F4F9F4F1F914F
:100230000895FB01DC014150504030F08D91019058
:10024000801919F40020B9F7881B990B0895FB0158
:1002500051915523A9F0BF01DC014D914517411182
:10026000E1F759F4CD010190002049F04D9140157E
:100270004111C9F3FB014111EFCF81E090E00197FB
:100280000895BF92CF92DF92EF92FF920F931F9348
:100290007B018C01FB010995B82EC8010196F7017D
:1002A0000995C82EC8010296F7010995D82EC801F4
:1002B0000396F7010995982F6B2D7C2D8D2D1F919D
:1002C0000F91FF90EF90DF90CF90BF900895BF9275
:1002D000CF92DF92EF92FF920F931F93D52EC62EEF
:1002E000B72E79018C01642FF9010995C801019697
:1002F0006D2DF7010995C80102966C2DF70109953E
:10030000C80103966B2DF70109951F910F91FF907E
:10031000EF90DF90CF90BF900895592F482F372F3F
:10032000262F660F771F881F991F660F771F881F5C
:10033000991F620F731F841F951F660F771F881FF9
:10034000991F08957AE0979F902D879F802D910D9A
:1003500011240895A0E0B0E0E0EBF1E00C94C416A5
:10036000EC015B016115710519F0FB01918380833C
:10037000F9908F2D90E00E94B316892BC9F7FDE20A
:10038000FF1621F4F990EE24E39405C02BE2F21657
:1003900009F4F990EE248E0101501040C8016DE07F
:1003A00071E043E050E00E940A03892B01F58E01C1
:1003B0000E5F1F4FC80160E171E045E050E00E9410
:1003C0000A03892B19F48E01095F1F4FA114B10490
:1003D00019F0F50111830083E0FC04C070E090E0A7
:1003E00080E814C070E090E080E86FEF08C1C801B9
:1003F00065E171E043E050E00E940A03892B69F453
:10040000A114B10429F470E090E080EC6FE7F7C02C
:100410002296F501D183C083F6CF8824992440E049
:1004200050E060E070E0EF2DE053EA30A0F5F2E03C
:10043000EF2A8E2D90E09C0128703070E2FE06C0FD
:10044000232B79F50894811C911C2BC0232B19F0C8
:10045000089481089108DB01CA0112E0880F991FF6
:10046000AA1FBB1F1A95D1F7480F591F6A1F7B1F80
:10047000440F551F661F771F4E0F511D611D711DC3
:10048000483929E9520729E9620729E1720748F04A
:1004900084E0E82A06C0EE3F31F4E3FC39C098E07E
:1004A000E92AF990C0CFE53311F0E53189F52991BA
:1004B0002D3219F4E0E1EE2A05C02B3219F081E06B
:1004C00090E003C0299182E090E0E22FE053EA300F
:1004D00018F0C81BD90B1CC020E030E0FCE020382D
:1004E0003F075CF4C901880F991F880F991F280FD7
:1004F000391F220F331F2E0F311DE991E053EA30CF
:1005000068F3E4FE03C0309521953F4F820E931EA1
:10051000CE2CDD24E1FE07C0A114B10421F0219707
:10052000F501D183C083CB01BA010E942E147B0157
:100530008C01F3E0CF22DD2423E0C216D10421F4A4
:1005400017FB109517F9109557016801C801B701FD
:1005500020E030E040E050E00E948E13882309F450
:100560004AC097FE0DC02CE2E22E21E0F22E9094BC
:10057000819491089394C0E2D0E000E010E012C0B2
:1005800094E4E92E91E0F92EF6CFF701259135910B
:1005900045915491C601B5010E944E155B016C0155
:1005A0008C1A9D0A8C169D0684F7D595C7950F5F0A
:1005B0001F4F0630110529F08CEF9FEFE80EF91E52
:1005C000F1CFC501D6017C018D018C2D880F8D2DB9
:1005D000881F8F3F51F0C601B50120E030E040E0B8
:1005E00050E00E948E13882331F482E290E09093D1
:1005F0007E0480937D047E2D9F2D802F612F272FD9
:10060000392F482F562FB901CA01CDB7DEB7ECE01C
:100610000C94E016FB01DC014150504088F08D91B4
:1006200081341CF08B350CF4805E659161341CF0D4
:100630006B350CF4605E861B611171F3990B0895A4
:10064000881BFCCF0F931F938C01FC01848160E019
:100650000E94C20E81E090E00E945A0EF80184814F
:1006600061E00E94C20E81E090E00E945A0EF80103
:10067000848160E00E94C20E84E690E00E945A0EDF
:100680001F910F910895CF92DF92EF92FF920F93F7
:100690001F93CF93DF93D82EC92E282F392FC9014E
:1006A0008C01C0E0D0E0E62EFF24F801858161E0F6
:1006B0000E94A20EB7010C2E02C0759567950A9490
:1006C000E2F76170F80185810E94C20E21960F5FEA
:1006D0001F4FC830D10549F78D2D9C2D0E94220354
:1006E000DF91CF911F910F91FF90EF90DF90CF900E
:1006F0000895CF92DF92EF92FF920F931F93CF93C3
:10070000DF93D82EC92E282F392FC9018C01C0E0C4
:10071000D0E0E62EFF24F801858161E00E94A20E60
:10072000B7010C2E02C0759567950A94E2F76170C7
:10073000F80185810E94C20E21960F5F1F4FC430C1
:10074000D10549F78D2D9C2D0E942203DF91CF9179
:100750001F910F91FF90EF90DF90CF9008951F931E
:10076000CF93DF93EC01162F8A81642F0E94C20E73
:100770008B8160E00E94C20E8D8584FF05C0CE0192
:10078000612F0E9443030EC0612F70E084E07595D5
:1007900067958A95E1F7CE010E947903CE01612F1A
:1007A0000E947903DF91CF911F91089541E00E944B
:1007B000AF03089540E00E94AF030895EF92FF92C7
:1007C0000F931F93CF93DF938C017A016770660FAD
:1007D000660F660F60640E94DA03C0E0D0E0D801C3
:1007E000ED91FC91D701AC0FBD1F0190F081E02D80
:1007F000C8016C9109952196C830D10581F7DF9128
:10080000CF911F910F91FF90EF900895FC016685A5
:10081000862F846086876C60CF010E94DA0308957A
:10082000DF93CF93CDB7DEB728970FB6F894DEBF2E
:100830000FBECDBF9C01FE013196AEE7B2E088E06D
:100840000D9001928150E1F7F9018189841710F42C
:10085000482F4150E42FF0E0EE0FFF1FEC0FFD1F7B
:100860008181680F6068C9010E94DA0328960FB67B
:10087000F894DEBF0FBECDBFCF91DF91089561E048
:100880000E94DA0380ED97E00E945A0E0895CF93FC
:10089000DF93EC01423018F08D8588608D87498B9D
:1008A0001A8A222329F0413019F48D8584608D87BE
:1008B00080E593EC0E945A0E8A8160E00E94C20E8D
:1008C0008C8160E00E94C20E8B8160E00E94C20EAB
:1008D0006D8564FD1DC0CE0163E00E94790384E94B
:1008E00091E10E945A0ECE0163E00E94790384E9EF
:1008F00091E10E945A0ECE0163E00E94790386E9DD
:1009000090E00E945A0ECE0162E00E94790316C068
:100910006062CE010E94DA0384E991E10E945A0EDE
:100920006D856062CE010E94DA0386E990E00E9444
:100930005A0E6D856062CE010E94DA036D85606299
:10094000CE010E94DA0384E08E87CE010E94060465
:10095000CE010E943F0482E08F87CE0166E00E94B4
:10096000DA03DF91CF9108956F927F928F92AF92C9
:10097000CF92EF920F931F93DF93CF93CDB7DEB754
:100980003C01162F842FF301428323830483E582E5
:10099000C682A78280869D8591879E8592879F8546
:1009A00093879889948761E00E94A20EF301838166
:1009B00061E00E94A20EF301848161E00E94A20E18
:1009C000112319F0F301158603C080E1F301858737
:1009D000C30160E141E020E00E944704CF91DF9134
:1009E0001F910F91EF90CF90AF908F907F906F906D
:1009F00008958F92AF92CF92DF92EF92FF920F9372
:100A00001F93CF93DF93DC01362F542F722F102FBB
:100A1000FE2CDC2C8A2C88E792E011969C938E9316
:100A200000D000D0EDB7FEB73196CDB7DEB7198252
:100A3000118212821382CD0161E0432F252F072FEF
:100A4000E12ECF2CAD2C0E94B4040F900F900F908C
:100A50000F90DF91CF911F910F91FF90EF90DF905A
:100A6000CF90AF908F9008959C01F999FECF32BD41
:100A700021BDF89A80B508959C01F999FECF1FBA5F
:100A800032BD21BD60BD0FB6F894FA9AF99A0FBE37
:100A90000895AF92CF92EF920F9388EC92E062E0CC
:100AA00043E024E005E076E0E72E57E0C52E38E08D
:100AB000A32E0E94F9040F91EF90CF90AF9008956C
:100AC000CF93DF93EC0182559140479720F0CE0100
:100AD00046968D9750F488EC92E040E050E060E05C
:100AE00070E020E030E00E942712CE0147978E97F9
:100AF00050F488EC92E041E050E060E070E020E0EB
:100B000030E00E942712CE01855490408D9750F41A
:100B100088EC92E042E050E060E070E020E030E0FD
:100B20000E942712CE01825790408D9750F488EC96
:100B300092E043E050E060E070E020E030E00E94AE
:100B40002712CE018F5990408C9750F488EC92E098
:100B500044E050E060E070E020E030E00E942712C6
:100B6000CE018B5C90408E9750F488EC92E045E08B
:100B700050E060E070E020E030E00E942712CE01FB
:100B8000895F90408C9750F488EC92E046E050E00A
:100B900060E070E020E030E00E942712C552D140B2
:100BA000AD9750F488EC92E047E050E060E070E0F0
:100BB00020E030E00E942712DF91CF910895F9994B
:100BC000FECF80E090E064E375E00E944101609315
:100BD000B2027093B3028093B4029093B502F99974
:100BE000FECF84E090E064E375E00E9441016093F1
:100BF000B6027093B7028093B8029093B902089539
:100C00002F923F924F925F926F927F928F929F921C
:100C1000AF92BF92CF92DF92EF92FF920F931F930A
:100C2000DF93CF9300D000D0CDB7DEB73B014C01AE
:100C300029833A834B835C83C801B701A4019301E4
:100C40000E94C71223E333E34AE852E40E944E15A0
:100C50001B012C01C401B30123E333E345E652E455
:100C60000E9495130E9492137B018C01C601B5016D
:100C700029813A814B815C810E94C71223E333E3CF
:100C80004AE852E40E944E15A80197010E944E15B1
:100C90007B018C01C201B101A20191010E944E159C
:100CA0005B016C01C801B701A80197010E944E15B4
:100CB0009B01AC01C601B5010E94C8120E94B51586
:100CC00022E03BE249EC54E40E944E150F900F9055
:100CD0000F900F90CF91DF911F910F91FF90EF90A8
:100CE000DF90CF90BF90AF909F908F907F906F904C
:100CF0005F904F903F902F9008952F923F924F9288
:100D00005F926F927F928F929F92AF92BF92CF929B
:100D1000DF92EF92FF920F931F93DF93CF9300D058
:100D200000D0CDB7DEB769837A838B839C831901AA
:100D30002A0123E333E345E652E40E9495130E941F
:100D400092133B014C01C601B501A20191010E9421
:100D5000C71223E333E34AE852E40E944E15A4018C
:100D600093010E944E155B016C01C801B7012981F6
:100D70003A814B815C810E94C71223E333E34AE846
:100D800052E40E944E159B01AC01C601B5010E94C0
:100D90003B1321EE3EE245E652E40E944E150F90D1
:100DA0000F900F900F90CF91DF911F910F91FF90B7
:100DB000EF90DF90CF90BF90AF909F908F907F90FB
:100DC0006F905F904F903F902F9008950E94270161
:100DD00004960E94F20008950E94270104960E9442
:100DE000D40008950E94270104960E94D00008951F
:100DF0000F931F930EC10091E1021091E2028AE667
:100E000094E00E94A8100D511D4FF801808320919D
:100E1000E1023091E202F901ED51FD4F80818A300B
:100E200009F0DBC083EE92E060E071E043E050E067
:100E30000E941901009709F08DC083EE92E064E0F2
:100E400071E00E94E6066093960270939702809389
:100E500098029093990283EE92E069E071E00E941B
:100E6000E60660939A0270939B0280939C02909393
:100E70009D0283EE92E06EE071E00E94EC0690939A
:100E80009F0280939E0283EE92E063E171E00E94F4
:100E9000EC069093A1028093A00283EE92E068E1B9
:100EA00071E00E94EC069093A3028093A20283EE6D
:100EB00092E06DE171E00E94EC069093A7028093AE
:100EC000A60283EE92E062E271E00E94EC0690934B
:100ED000A9028093A80283EE92E067E271E00E948B
:100EE000EC069093A5028093A40283EE92E06CE25C
:100EF00071E00E94EC069093AB028093AA0283EE0D
:100F000092E061E371E00E94E60660932F02709325
:100F10003002809331029093320283EE92E066E3D6
:100F200071E00E94F2066093AC027093AD02809370
:100F3000AE029093AF0283EE92E06BE371E00E9409
:100F4000EC069093B1028093B00280912E028160F2
:100F500080932E0283EE92E060E471E043E050E083
:100F60000E941901009729F583EE92E064E471E094
:100F70000E94F2060E94FD1370939102609390020A
:100F800083EE92E069E471E00E94EC069093930294
:100F90008093920283EE92E06EE471E00E94EC0690
:100FA000909395028093940280912E0281608093A9
:100FB0002E022091E1023091E20280E090E005C033
:100FC000FC01ED51FD4F1082019628173907C4F737
:100FD0001092E2021092E10206C02F5F3F4F309361
:100FE000E2022093E1022091E1023091E2022A3FE5
:100FF00031057CF080E090E0FC01ED51FD4F108266
:10100000019628173907C4F71092E2021092E10204
:1010100007C08AE694E00E949410882309F0EBCE82
:101020001F910F910895EF92FF920F931F93CF930B
:10103000DF938C017B01F894C0E0D0E00FC08EE01C
:1010400061E00E94C20EC7010E945A0E8EE060E06D
:101050000E94C20EC7010E945A0E2196C017D107E6
:1010600074F37894DF91CF911F910F91FF90EF90DF
:101070000895982FFB01813069F48081882311F055
:1010800080E008959083CA0168EC70E00E94130824
:1010900081E00895108280E008958CE060E00E9475
:1010A000A20E8BE061E00E94A20E8BE061E00E9444
:1010B000C20E8DE060E00E94A20E8DE00E940F0F34
:1010C00020E0019709F421E0822F08958BE060E091
:1010D0000E94A20E8DE061E00E94A20E8DE061E010
:1010E0000E94C20E8CE060E00E94A20E8CE00E9482
:1010F0000F0F20E0019709F421E0822F08958DE081
:1011000060E00E94A20E8CE061E00E94A20E8CE0E2
:1011100061E00E94C20E8BE060E00E94A20E8BE0B4
:101120000E940F0F20E0019709F421E0822F08951B
:1011300080913302843009F051C00E947F088823D7
:1011400009F44CC08091960290919702A091980268
:10115000B09199028093B2029093B302A093B4022B
:10116000B093B50280919A0290919B02A0919C024B
:10117000B0919D028093B6029093B702A093B802FB
:10118000B093B90288EC92E060E042E00E94100463
:1011900088EC92E063E571E00E945411F999FECF6A
:1011A0004091B2025091B3026091B4027091B502C5
:1011B00080E090E02CE335E00E946701F999FECFD2
:1011C0004091B6025091B7026091B8027091B90295
:1011D00084E090E02CE335E00E94670108958CE004
:1011E00060E00E94A20E8DE061E00E94A20E8DE000
:1011F00061E00E94C20E8BE060E00E94A20E8BE0D4
:101200000E940F0F20E0019709F421E0822F08953A
:101210008BE060E00E94C20E8CE061E00E94A20EB2
:101220008CE061E00E94C20E8DE060E00E94A20EA0
:101230008DE00E940F0F20E0019709F421E0822F3A
:1012400008958DE060E00E94A20E8BE061E00E94B4
:10125000A20E8BE061E00E94C20E8CE060E00E9472
:10126000A20E8CE00E940F0F20E0019709F421E00C
:10127000822F08951F93182F0E9421096BED72E0B1
:1012800048EC50E00E943908882329F080912E0212
:10129000816080932E020E9408096CED72E048EC98
:1012A00050E00E943908882329F080912E02816045
:1012B00080932E020E94EF086DED72E048EC50E042
:1012C0000E943908882351F080912E02816080931A
:1012D0002E02809133028150809333020E947F0856
:1012E0006EED72E048EC50E00E943908882329F046
:1012F00080912E02816080932E020E9466086FED1D
:1013000072E048EC50E00E943908882351F0809147
:101310002E02816080932E02809133028F5F809332
:1013200033020E944D0860EE72E048EC50E00E94EB
:101330003908882329F080912E02816080932E0243
:1013400080913302882311F4109333028091330289
:10135000181718F481E0809333021F9108952F929B
:101360003F924F925F926F927F928F929F92AF9235
:10137000BF92CF92DF92EF92FF920F931F9384E080
:101380000E943A090E94F80680912E0280FF33C322
:101390008E7F80932E0280913302823009F4C8C080
:1013A000833020F4813009F026C307C0833009F46C
:1013B0005EC1843009F01FC3BEC288EC92E00E9477
:1013C0003F0488EC92E068E671E00E94541160915D
:1013D000AA027091AB0288EC92E00E941F1288EC86
:1013E00092E06AE040E00E94100488EC92E06DE632
:1013F00071E00E94541140912F025091300260918F
:1014000031027091320288EC92E00E94F81188EC6F
:1014100092E060E041E00E94100488EC92E062E714
:1014200071E00E9454116091A6027091A70288ECAD
:1014300092E00E941F1288EC92E068E041E00E9476
:1014400010048091A6029091A7020E94600588EC8A
:1014500092E06AE041E00E94100488EC92E067E7C5
:1014600071E00E9454116091A8027091A90288EC69
:1014700092E00E941F1288EC92E062E141E00E943B
:1014800010048091A8029091A9020E94600588EC46
:1014900092E060E042E00E94100488EC92E06CE789
:1014A00071E00E9454116091A4027091A50288EC31
:1014B00092E00E941F1288EC92E06AE042E00E94F3
:1014C000100488EC92E061E871E00E945411609190
:1014D00090027091910288EC92E00E941F1288ECB9
:1014E00092E060E043E00E94100488EC92E066E83D
:1014F00071E00E94541160919E0270919F0288ECED
:1015000092E00E941F1288EC92E06AE043E00E94A1
:10151000100488EC92E06BE871E00E945411409155
:10152000AC025091AD026091AE027091AF02FEC16B
:1015300088EC92E00E943F0488EC92E061E971E05F
:101540000E945411609192027091930288EC92E093
:101550000E941F1288EC92E06AE040E00E941004B2
:1015600088EC92E067E971E00E9454116091940266
:101570007091950288EC92E00E941F1288EC92E034
:1015800060E041E00E94100488EC92E061E871E0C4
:101590000E945411609190027091910288EC92E047
:1015A0000E941F1288EC92E06AE041E00E94100461
:1015B00088EC92E06CE771E00E9454116091A40203
:1015C0007091A50288EC92E00E941F1288EC92E0D4
:1015D00060E042E00E94100488EC92E066E871E06E
:1015E0000E94541160919E0270919F0288EC92E0DB
:1015F0000E941F1288EC92E06AE042E00E94100410
:1016000088EC92E06EE971E00E9454116091A002B2
:101610007091A10288EC92E00E941F1288EC92E087
:1016200060E043E00E94100488EC92E062E771E021
:101630000E9454116091A6027091A70288EC92E07A
:101640000E941F1288EC92E06AE043E00E941004BE
:1016500088EC92E063EA71E00E9454116091B0025C
:101660007091B10288EC92E00E941F12C4C1609197
:10167000B2027091B3028091B4029091B5020E94BF
:10168000301420E034E244E759E40E9495131B0132
:101690002C016091B6027091B7028091B8029091CE
:1016A000B9020E94301420E034E244E759E40E9479
:1016B00095133B014C0160919602709197028091C5
:1016C0009802909199020E94301420E034E244E79D
:1016D00059E40E9495137B018C0160919A027091EC
:1016E0009B0280919C0290919D020E94301420E008
:1016F00034E244E759E40E9495135B016C01C20196
:10170000B101A40193010E9400065B016C0160938A
:10171000BA027093BB028093BC029093BD02E0902A
:101720009E02F0909F02A60195010E944E153B017A
:101730004C01EE9CB001EF9C700DFE9C700D1124CD
:10174000882777FD8095982F0E9430149B01AC016B
:10175000C401B3010E94C8120E94B5156093BE0275
:101760007093BF028093C0029093C1020027F7FCE0
:101770000095102FC801B7010E943014A6019501F1
:101780000E9495130E94661320E030E044E353E486
:101790000E944E152BED3FE049E450E40E94951362
:1017A0000E94FD137093C3026093C2026091B20263
:1017B0007091B3028091B4029091B5020E943014EE
:1017C00020E034E244E759E40E9495131B012C0108
:1017D0006091B6027091B7028091B8029091B902FF
:1017E0000E94301420E034E244E759E40E9495134B
:1017F0003B014C0160919602709197028091980292
:10180000909199020E94301420E034E244E759E4B8
:101810000E9495137B018C0160919A0270919B024A
:1018200080919C0290919D020E94301420E034E24D
:1018300044E759E40E9495135B016C01C201B101B8
:10184000A40193010E947D066093C4027093C502B7
:101850008093C6029093C70288EC92E00E943F04F6
:1018600088EC92E068EA71E00E9454114091BA025B
:101870005091BB026091BC027091BD0288EC92E075
:101880000E94C31288EC92E060E041E00E941004E4
:1018900088EC92E060EB71E00E9454114091BE022E
:1018A0005091BF026091C0027091C10288EC92E039
:1018B0000E94C31288EC92E060E042E00E941004B3
:1018C00088EC92E068EB71E00E9454116091C202D2
:1018D0007091C30288EC92E00E941F1288EC92E0A3
:1018E0006AE042E00E94100488EC92E06FEB71E045
:1018F0000E94541160919E0270919F0288EC92E0C8
:101900000E941F1288EC92E060E043E00E94100405
:1019100088EC92E065EC71E00E9454114091C402A1
:101920005091C5026091C6027091C70288EC92E0A6
:101930000E94C31260C088EC92E00E943F0488ECD1
:1019400092E06AEC71E00E94541188EC92E060E051
:1019500041E00E94100440919602509197026091DC
:1019600098027091990288EC92E00E94F81188EC3C
:1019700092E06AE041E00E94100440919A02509186
:101980009B0260919C0270919D0288EC92E00E9403
:10199000F81188EC92E060E042E00E94100488ECCC
:1019A00092E064ED71E00E9454110E94980888EC66
:1019B00092E060E043E00E9410044091B202509136
:1019C000B3026091B4027091B50288EC92E00E947B
:1019D000F81188EC92E06AE043E00E941004409124
:1019E000B6025091B7026091B8027091B90288ECCA
:1019F00092E00E94F8111F910F91FF90EF90DF90FD
:101A0000CF90BF90AF909F908F907F906F905F909E
:101A10004F903F902F900895EF92FF920F931F9356
:101A20000E94DF0508EC12E0C80164E144E020E018
:101A30000E944704C80160E044E352E00E94DE03D4
:101A4000C80161E04CE352E00E94DE03C80162E09D
:101A500044E452E00E94DE03C80163E04CE452E03B
:101A60000E94DE03C80164E044E552E00E94DE0308
:101A7000C80165E04CE552E00E94DE03C80166E063
:101A800044E652E00E94DE03C80167E04CE652E003
:101A90000E94DE03EAE6EE2EE4E0FE2EC70140E0FF
:101AA00056E960E070E00E949B0F8EE061E00E94CA
:101AB000A20EC8010E943F04C80165EE71E00E94B9
:101AC0005411C7016FEF71E00E945411C80160E02A
:101AD00041E00E941004C80169E072E00E945411C4
:101AE000C80160E042E00E941004C8016FE172E0AA
:101AF0000E945411C80166E043E00E941004C8012E
:101B000040E050E060E070E020E030E00E9427120A
:101B1000C80141E050E060E070E020E030E00E9469
:101B20002712C80142E050E060E070E020E030E0C1
:101B30000E942712C80143E050E060E070E020E01E
:101B400030E00E942712C80144E050E060E070E0FD
:101B500020E030E00E942712C80145E050E060E03C
:101B600070E020E030E00E942712C80146E050E01B
:101B700060E070E020E030E00E942712C80147E0FA
:101B800050E060E070E020E030E00E94271284EF37
:101B900091E068EC70E00E9413086CED75E080E065
:101BA00090E00E94300E8BE061E00E94A20EC8011E
:101BB00060E042E00E9410041F910F91FF90EF90AF
:101BC00008950E94680E0E940C0D0E94AF09FDCF7F
:101BD0001F920F920FB60F9211242F933F938F9362
:101BE0009F93AF93BF938091E1039091E203A09103
:101BF000E303B091E4033091E5030196A11DB11D0B
:101C0000232F2D5F2D3720F02D570196A11DB11DDB
:101C10002093E5038093E1039093E203A093E30311
:101C2000B093E4038091DD039091DE03A091DF0384
:101C3000B091E0030196A11DB11D8093DD03909347
:101C4000DE03A093DF03B093E003BF91AF919F91B8
:101C50008F913F912F910F900FBE0F901F9018956D
:101C6000EF92FF920F931F937B018C018FB7F89433
:101C70004091E1035091E2036091E3037091E4032A
:101C80008FBF2FB7F8948091E1039091E203A09168
:101C9000E303B091E4032FBF841B950BA60BB70B96
:101CA000E816F9060A071B0760F71F910F91FF90CE
:101CB000EF900895019759F0FC01EE0FFF1FEE0F12
:101CC000FF1F32978FB7F8943197F1F78FBF0895C0
:101CD000789484B5826084BD84B5816084BD85B507
:101CE000826085BD85B5816085BDEEE6F0E08081CE
:101CF00081608083E1E8F0E0808182608083808180
:101D000081608083E0E8F0E0808181608083E1EBA6
:101D1000F0E0808184608083E0EBF0E0808181608E
:101D20008083EAE7F0E08081846080838081826044
:101D3000808380818160808380818068808310922D
:101D4000C1000895282F30E0C9018B519F4FFC013D
:101D500094912F523F4FF9018491882391F0E82FFD
:101D6000F0E0EE0FFF1FED54FF4FA591B4916623F5
:101D700029F48C91909589238C9308958C91892BCB
:101D80008C930895482F50E0CA0187509F4FFC0163
:101D90002491CA018B519F4FFC0194914F525F4F88
:101DA000FA0134913323D1F1222331F1233021F48C
:101DB000809180008F7705C0243031F480918000BD
:101DC0008F7D8093800018C0213019F484B58F77FF
:101DD00004C0223021F484B58F7D84BD0DC026302F
:101DE00021F48091B0008F7705C0273029F48091CD
:101DF000B0008F7D8093B000E32FF0E0EE0FFF1F67
:101E0000E354FF4FA591B491662329F48C919095EA
:101E100089238C9308958C91892B8C930895682F36
:101E200070E0CB0187509F4FFC012491CB018B5177
:101E30009F4FFC0144916F527F4FFB019491992376
:101E400019F420E030E038C0222331F1233021F4AE
:101E5000809180008F7705C0243031F4809180001C
:101E60008F7D8093800018C0213019F484B58F775E
:101E700004C0223021F484B58F7D84BD0DC026308E
:101E800021F48091B0008F7705C0273029F480912C
:101E9000B0008F7D8093B000892F90E0880F991F4C
:101EA00089539F4FFC01A591B4918C9120E030E0C3
:101EB000842311F021E030E0C90108951F920F92B0
:101EC0000FB60F9211242F933F934F935F936F930D
:101ED0007F938F939F93AF93BF93EF93FF93409123
:101EE000C600E0916604F0916704CF01019660E8B6
:101EF00070E00E9449169C018091680490916904E9
:101F00002817390739F0EA51FC4F408330936704B2
:101F100020936604FF91EF91BF91AF919F918F91B4
:101F20007F916F915F914F913F912F910F900FBED5
:101F30000F901F9018955F926F927F928F929F9251
:101F4000AF92BF92CF92DF92EF92FF920F931F93C7
:101F5000CF93DF93EC013A014B01413482E45807FF
:101F60008FE0680780E078070CF07FC060E874E8D5
:101F70008EE190E0A40193010E947E162150304032
:101F800040405040CA01B90122E030E040E050E05A
:101F90000E947E1659016A01A6019501209530958F
:101FA0004095509594E0220F331F441F551F9A957A
:101FB000D1F760E074E284EF90E00E947E16CA01DF
:101FC000B9012FEF30E040E050E00E942A16A40152
:101FD00093010E947E16C90181509F4F1816190661
:101FE0001CF4522E5A9403C055245394521A60E0A4
:101FF00079E08DE390E0A40193010E947E162150C8
:10200000304040405040CA01B90122E030E040E099
:1020100050E00E947E16209530954095509583E0C3
:10202000220F331F441F551F8A95D1F760E074E2D9
:1020300084EF90E00E947E16CA01B9012FEF30E0D4
:1020400040E050E00E942A16A40193010E947E16EF
:10205000C90181509F4F181619061CF4822F815018
:1020600002C081E0821B851500F5E885F98581E0D5
:1020700090E00A8802C0880F991F0A94E2F78083D3
:1020800060E079E08DE390E0A40193010E947E1668
:102090002150304040405040CA01B90122E030E0B8
:1020A00040E050E00E947E1604C0E885F985108269
:1020B0009501EC81FD813083EE81FF812083EA85EB
:1020C000FB85208141E050E0CA010E8402C0880FE8
:1020D000991F0A94E2F7282B2083EA85FB8520814B
:1020E000CA010F8402C0880F991F0A94E2F7282BB7
:1020F0002083EA85FB858081088802C0440F551F34
:102100000A94E2F7842B8083DF91CF911F910F9186
:10211000FF90EF90DF90CF90BF90AF909F908F9007
:102120007F906F905F900895DC011296ED91FC9185
:102130001397E058FF4F8191919180589F4F2081D4
:102140003181821B930B60E870E00E94491608956C
:10215000CF93DF93DC011296ED91FC911397EF0181
:10216000CE57DF4F48815981E058FF4F80819181E0
:10217000E058F0408417950719F42FEF3FEF0CC09B
:10218000E40FF51F2081CA01019660E870E00E940B
:1021900049169983888330E0C901DF91CF91089572
:1021A000FC01A085B18521898C9190E0022E02C0AE
:1021B000959587950A94E2F780FFF6CF0484F5851C
:1021C000E02D608308958AE892E090936B048093F9
:1021D0006A0486EE93E090936D0480936C0485EC22
:1021E00090E090936F0480936E0484EC90E0909361
:1021F00071048093700480EC90E09093730480935A
:10220000720481EC90E0909375048093740486ECE2
:1022100090E0909377048093760484E08093780430
:1022200083E08093790487E080937A0485E080934B
:102230007B0481E080937C0408950F931F93CF93D8
:10224000DF938C01EB0109C02196D801ED91FC913F
:102250000190F081E02DC801099568816623A1F7FE
:10226000DF91CF911F910F910895EF92FF920F93FD
:102270001F93CF93DF938C017B01EA010CC0D70140
:102280006D917D01D801ED91FC910190F081E02DDF
:10229000C80109952197209791F7DF91CF911F9160
:1022A0000F91FF90EF900895DC01ED91FC91028079
:1022B000F381E02D099508952F923F924F925F92FE
:1022C0006F927F928F929F92AF92BF92CF92DF9246
:1022D000EF92FF920F931F93DF93CF93CDB7DEB7AB
:1022E000A0970FB6F894DEBF0FBECDBF1C016A01E8
:1022F0007B01411551056105710549F4DC01ED9142
:10230000FC910190F081E02D60E3099554C0882490
:1023100099245401422E55246624772401E010E0CC
:102320000C0F1D1F080D191DC701B601A301920155
:102330000E945C16F80160830894811C911CA11C0A
:10234000B11CC701B601A30192010E945C16C9012C
:10235000DA016C017D01C114D104E104F104F1F64C
:1023600081E0E82EF12CEC0EFD1EE80CF91C3E017C
:102370000894611C711CD501C4010197A109B10920
:102380006C01C818D90814C0F601EE0DFF1D60815C
:102390006A3010F4605D01C0695CD101ED91FC917F
:1023A0000190F081E02DC10109950894E108F10840
:1023B0006E147F0449F7A0960FB6F894DEBF0FBEE7
:1023C000CDBFCF91DF911F910F91FF90EF90DF90E4
:1023D000CF90BF90AF909F908F907F906F905F90C5
:1023E0004F903F902F9008952AE00E945C1108952D
:1023F000EF92FF920F931F93CF93DF93EC017A013B
:102400008B0177FF0FC0E881F9810190F081E02D09
:102410006DE2099510950095F094E094E11CF11C93
:10242000011D111DCE01B801A7012AE00E945C1117
:10243000DF91CF911F910F91FF90EF900895AB0125
:10244000662757FD6095762F0E94F8110895DC01EC
:102450002115310541F4ED91FC910190F081E02DC1
:10246000642F099508952A30310519F40E94F81156
:1024700008950E945C1108959F92AF92BF92CF92EF
:10248000DF92EF92FF920F931F93CF93DF93EC01B4
:102490007A018B01922ECB01BA0120E030E040E0BE
:1024A00050E00E948E13882364F4E881F981019042
:1024B000F081E02DCE016DE2099517FB109517F91B
:1024C000109520E030E040E05FE3AA240BC0CA0191
:1024D000B90120E030E040E251E40E9495139B01F5
:1024E000AC01A394A91498F3C801B7010E94C812C3
:1024F0005B016C010E9402147B018C01CE01B801CA
:10250000A7010E94F411992029F0CE016CE272E03B
:102510000E945411C801B7010E942E149B01AC0106
:10252000C601B5010E94C71220C020E030E040E2A1
:1025300051E40E944E157B018C010E94FD135B014A
:102540006C01CC24B7FCC094DC2CCE01B601A501F3
:102550000E94F811C601B5010E9430149B01AC0124
:10256000C801B7010E94C7129A949920F1F6DF9131
:10257000CF911F910F91FF90EF90DF90CF90BF9080
:10258000AF909F90089522E00E943C120895505809
:10259000BB27AA270ED030C2F0D130F0F5D120F001
:1025A00031F49F3F11F41EF4C0C10EF4E095E7FB37
:1025B000B6C1E92F43D280F3BA17620773078407C5
:1025C000950718F071F49EF55BC20EF4E0950B2EA2
:1025D000BA2FA02D0B01B90190010C01CA01A00175
:1025E0001124FF27591B99F0593F50F4503E68F1D0
:1025F0001A16F040A22F232F342F4427585FF3CF11
:10260000469537952795A795F0405395C9F77EF4E1
:102610001F16BA0B620B730B840BBAF09150A1F02A
:10262000FF0FBB1F661F771F881FC2F70EC0BA0FB0
:10263000621F731F841F48F4879577956795B79538
:10264000F7959E3F08F0B3CF9395880F08F0992730
:10265000EE0F97958795089590D158F080E891E016
:1026600009F49EEF91D128F040E851E059F45EEF73
:1026700009C05BC105C2E92FE078E0D168F3092EFB
:10268000052AC1F3261737074807590738F00E2ED9
:1026900007F8E02569F0E025E0640AC0EF6307F879
:1026A000009407FADB01B9019D01DC01CA01AD010B
:1026B000EF934AD0A1D10AD05F91552331F02BED91
:1026C0003FE049E450FD49EC63CF0895DF93DD27F7
:1026D000B92FBF7740E85FE31616170648075B0778
:1026E00010F4D92FD4D19F938F937F936F9387D278
:1026F000E8E6F0E01DD180D12F913F914F915F919D
:10270000D9D1DD2349F09058A2EA2AED3FE049EC07
:102710005FE3D0785D274DDFDF916EC1DCD008F438
:1027200081E0089539D1E39578C10CD065C12CD1F1
:1027300040F023D130F021F45F3F19F0F0C0511187
:10274000A0C1F3C07BD198F39923C9F35523B1F30A
:10275000951B550BBB27AA2762177307840738F010
:102760009F5F5F4F220F331F441FAA1FA9F333D06F
:102770000E2E3AF0E0E830D091505040E695001C23
:10278000CAF729D0FE2F27D0660F771F881FBB1FDF
:10279000261737074807AB07B0E809F0BB0B802DB9
:1027A000BF01FF2793585F4F2AF09E3F510568F005
:1027B000B6C067C15F3FECF3983EDCF38695779532
:1027C0006795B795F7959F5FC9F7880F911D969507
:1027D000879597F90895E1E0660F771F881FBB1F63
:1027E000621773078407BA0720F0621B730B840B10
:1027F000BA0BEE1F88F7E095089504D06894B111E4
:1028000040C1089523D188F09F5790F0B92F9927A0
:10281000B751A0F0D1F0660F771F881F991F1AF0EB
:10282000BA95C9F712C0B13081F02AD1B1E008954C
:1028300027C1672F782F8827B85F39F0B93FCCF3CD
:10284000869577956795B395D9F73EF490958095E1
:10285000709561957F4F8F4F9F4F0895E89409C001
:1028600097FB3EF490958095709561957F4F8F4FC3
:102870009F4F9923A9F0F92F96E9BB279395F695D9
:10288000879577956795B795F111F8CFFAF4BB0F57
:1028900011F460FF1BC06F5F7F4F8F4F9F4F16C0BB
:1028A000882311F096E911C0772321F09EE8872F45
:1028B000762F05C0662371F096E8862F70E060E001
:1028C0002AF09A95660F771F881FDAF7880F96957A
:1028D000879597F90895990F0008550FAA0BE0E81E
:1028E000FEEF16161706E807F907C0F012161306D2
:1028F000E407F50798F0621B730B840B950B39F412
:102900000A2661F0232B242B252B21F408950A2677
:1029100009F4A140A6958FEF811D811D089597F9B7
:102920009F6780E870E060E008959FEF80EC089575
:10293000DF93CF931F930F93FF92EF92DF927B0170
:102940008C01689405C0DA2EEF01B4D0FE01E89442
:10295000A5912591359145915591AEF3EF0129DE71
:10296000FE019701A801DA9479F7DF90EF90FF90CC
:102970000F911F91CF91DF91089500240A941616AC
:10298000170618060906089500240A94121613065D
:10299000140605060895C9CF59D0E8F3E894EFEF7F
:1029A000BB273FE048EC5FE76B3D73078407950763
:1029B00008F1FF279F57B25A6A4D7F40894CF0407B
:1029C00032F4BE556542704F8643FF4F0894EE1FA8
:1029D000915030F0BB0F661F771F881FFF1FEBCF92
:1029E0009EE7882332F0BB0F661F771F881F9A95DA
:1029F000C1F79395E09506C1092E0394000C11F4DC
:102A0000882352F0BB0F40F4BF2B11F460FF04C0C9
:102A10006F5F7F4F8F4F9F4F0895EF93E0FF06C08A
:102A2000A2EA2AED3FE049EC5FEBC3DDE5DF0F9062
:102A3000039401FC9058E5E9F0E0FBC057FD905885
:102A4000440F551F59F05F3F71F04795880F97FB72
:102A5000991F61F09F3F79F087950895121613062C
:102A60001406551FF2CF4695F1DF08C0161617065B
:102A70001806991FF1CF8695710561050894089590
:102A8000E894BB2766277727CB0197F908959B0128
:102A9000AC0160E070E080E89FE347CE0BD0ACCFA4
:102AA0006CDF28F071DF18F0952309F038CF3DCFA7
:102AB0001124E7CFC3DFA0F3959FD1F3950F50E02A
:102AC000551F629FF001729FBB27F00DB11D639FE0
:102AD000AA27F00DB11DAA1F649F6627B00DA11D86
:102AE000661F829F2227B00DA11D621F739FB00D2C
:102AF000A11D621F839FA00D611D221F749F33279C
:102B0000A00D611D231F849F600D211D822F762F34
:102B10006A2F11249F5750408AF0E1F088234AF031
:102B2000EE0FFF1FBB1F661F771F881F915050407D
:102B3000A9F79E3F510570F0F2CEA3CF5F3FECF3B3
:102B4000983EDCF3869577956795B795F795E79569
:102B50009F5FC1F7FE2B880F911D9695879597F97A
:102B6000089511F40EF4E1CE4DC070DFD0F3992337
:102B7000D9F3CEF39F57550B87FF54D056959795B1
:102B8000B0E020F4660F771F881FBB1F1F930F93C1
:102B900000249001A0018001F001A0E80E0F1F1F8A
:102BA0000A1E511D601B710B8009B50B48F4600FA4
:102BB000711F801DB51F0E1B1F0B0A0A510907C08C
:102BC0002E0F3F1F4A1F0E0F1F1F0A1E511D660F9B
:102BD000771F881FBB1FA695F795E795F8F6061790
:102BE000170708065B07211D311D411D0F911F911D
:102BF000B901842F9158880F9695879508959B0168
:102C0000AC014CCF9F3F49F0915028F486957795C1
:102C10006795B7959F5F80389F4F880F96958795EA
:102C200097F9089591505040660F771F881FD2F78B
:102C300008959F938F937F936F93FF93EF939B01DF
:102C4000AC012CDFEF91FF9173DE2F913F914F91FB
:102C50005F9124CF629FD001739FF001829FE00DAE
:102C6000F11D649FE00DF11D929FF00D839FF00D0B
:102C7000749FF00D659FF00D9927729FB00DE11DB7
:102C8000F91F639FB00DE11DF91FBD01CF01112494
:102C9000089597FB092E07260AD077FD04D049D066
:102CA00006D000201AF4709561957F4F0895F6F7CD
:102CB000909581959F4F0895A1E21A2EAA1BBB1BE8
:102CC000FD010DC0AA1FBB1FEE1FFF1FA217B307F8
:102CD000E407F50720F0A21BB30BE40BF50B661F0E
:102CE000771F881F991F1A9469F7609570958095D2
:102CF00090959B01AC01BD01CF01089597FB092E72
:102D000005260ED057FD04D0D7DF0AD0001C38F4BA
:102D100050954095309521953F4F4F4F5F4F089507
:102D2000F6F790958095709561957F4F8F4F9F4FE7
:102D30000895AA1BBB1B51E107C0AA1FBB1FA61702
:102D4000B70710F0A61BB70B881F991F5A95A9F754
:102D500080959095BC01CD010895EE0FFF1F059061
:102D6000F491E02D0994911106C0803219F0895038
:102D70008550D0F708959927882708952F923F927C
:102D80004F925F926F927F928F929F92AF92BF927B
:102D9000CF92DF92EF92FF920F931F93CF93DF9327
:102DA000CDB7DEB7CA1BDB0B0FB6F894DEBF0FBE84
:102DB000CDBF09942A88398848885F846E847D84D1
:102DC0008C849B84AA84B984C884DF80EE80FD80D3
:102DD0000C811B81AA81B981CE0FD11D0FB6F89449
:0E2DE000DEBF0FBECDBFED010895F894FFCF0A
:102DEE00212121004C41543A004C4F4E3A00414CA7
:102DFE00543A00414C483A004352543A004352531D
:102E0E003A004245523A005350443A0057504E3A17
:102E1E00004453543A004254563A005253503A002A
:102E2E002B2B2B004153503A00524C4C3A0050433E
:102E3E00483A00446F6E652121202020202020205A
:102E4E0020202020202020005750237E004449536C
:102E5E007E004352537E004245527E004753507EC1
:102E6E00004153507E00414C547E00426174747E8A
:102E7E0000526F6C6C7E0050697463687E00444132
:102E8E004C7E005253507E004469737432447E006F
:102E9E004469737433447E00416E676C657E002016
:102EAE00416C747E004469727E0053657420486FD5
:102EBE006D653F005072657373204F4B20746F2009
:102ECE005361766500426F6E6A6F7572204A656156
:102EDE006E2D4C6F756973204E617564696E00427C
:102EEE006F6E6A6F757220210053746174696F6E14
:102EFE0020736F6C20706F727461626C652000209D
:102F0E00204E6F7620323030392020002E00010105
:102F1E000000000100040E15040400000007030564
:102F2E00081000000004021F020400000010080533
:102F3E0003070000000404150E0400000001021433
:102F4E00181C00000004081F08040000001C1814C0
:102F5E000201000000000000D6031D113511000013
:102F6E0040001400540000000000D0101D11351157
:00000001FF
