:100000000C94A7000C94CF000C94CF000C94CF005C
:100010000C94CF000C94CF000C94CF000C94CF0024
:100020000C94CF000C94CF000C94CF000C94CF0014
:100030000C94CF000C94CF000C94CF000C94CF0004
:100040000C94FD150C94CF000C9473170C94CF00F6
:100050000C94CF000C9470030C94CF000C94CF0040
:100060000C94FD000C94CF00036EDB363D9A9999F9
:10007000993DABAAAA2A3E000000803F084AD73B20
:100080003BCE016E84BCBFFDC12F3D6C74319ABD67
:1000900056833DDA3D00C77F11BED9E4BB4C3E918B
:1000A0006BAAAABE000000803F072C7AA5BA6CC5D7
:1000B00090DA3B9365FC8BBC53F810FD3C56928361
:1000C0004DBD879D3AB63DCBC9BF5BBE73DA0FC944
:1000D0003F05A84CCDB2D44EB93836A9020C50B960
:1000E000918688083CA6AAAA2ABE000000803F008C
:1000F000000000240027002A00000000002500283E
:10010000002B000000000023002600290004040446
:1001100004040404040202020202020303030303B0
:10012000030102040810204080010204081020018D
:100130000204081020000000070002010000030470
:1001400006000000000000000000FC00F818112468
:100150001FBECFEFD8E0DEBFCDBF11E0A0E0B1E021
:10016000ECE4FEE302C005900D92AE3CB107D9F776
:1001700014E0AEECB1E001C01D92A531B107E1F78A
:1001800011E0CEE4D1E004C02297FE010E94201FBE
:10019000CA34D107C9F70E94F6150C94241F0C9499
:1001A0000000DF92EF92FF920F931F937B018C016F
:1001B000FB010995D82EC8010196F7010995982FE2
:1001C0008D2D1F910F91FF90EF90DF900895DF929A
:1001D000EF92FF920F931F93D72E7A018C01FA01B1
:1001E0000995C80101966D2DF70109951F910F9191
:1001F000FF90EF90DF90089508951F920F920FB631
:100200000F9211242F933F934F935F936F937F939C
:100210008F939F93AF93BF93EF93FF938091B90018
:1002200090E0887F90708036910509F4E2C08136B5
:100230009105CCF58832910509F47BC0893291058E
:10024000B4F48031910509F46FC0813191053CF41B
:10025000009709F438C1089709F040C165C088319A
:10026000910509F466C0809709F038C17FC08034D9
:10027000910509F4A3C08134910544F480339105BC
:1002800009F47FC0C89709F029C186C0803591055F
:1002900009F486C08835910509F495C08834910524
:1002A00009F01CC19EC08839910509F404C189393F
:1002B0009105ECF48837910509F49BC089379105C5
:1002C0004CF48836910509F494C08037910509F003
:1002D00005C18FC08838910509F4EDC080399105BA
:1002E00009F48DC08038910509F0F8C088C0803BC2
:1002F000910509F4B2C0813B91054CF4803A910517
:1003000009F491C0883A910509F0E8C0A6C0803C84
:10031000910509F4D4C0883C910509F4D0C0883B0C
:10032000910509F0DBC0B1C08091CF018093BB0083
:10033000C0C09091D6018091D701981778F4909120
:10034000D601E091D401F091D501E90FF11D808132
:100350008093BB009F5F9093D601ABC085ED8093E7
:10036000BC008091BC0084FDFCCFB6C080E28093CD
:10037000DF0185ED8093BC008091BC0084FDFCCF43
:10038000ABC080E38093DF0185ED8093BC0080915A
:10039000BC0084FDFCCFA0C088E38093DF018FC048
:1003A0008091D6019091BB00E091D401F091D501EC
:1003B000E80FF11D90838F5F8093D6019091D60155
:1003C0008091D70174C08091D6019091BB00E091DB
:1003D000D401F091D501E80FF11D90838F5F8093D8
:1003E000D60185ED8093BC008091BC0084FDFCCFDC
:1003F00073C083E08093CE011092DE015AC08091D9
:10040000DE01803208F057C08091DE019091BB0080
:10041000E091DC01F091DD01E80FF11D90838F5F29
:100420008093DE0146C08091DE01803248F48091E5
:10043000DE01E091DC01F091DD01E80FF11D108299
:100440006091DE01E091D201F091D3018091DC0155
:100450009091DD0170E0099532C084E08093CE0177
:100460001092DA011092DB01E091D001F091D101FC
:1004700009958091DB01882341F481E08093DB01C1
:10048000E091D801F091D90110829091DA01E091C8
:10049000D801F091D901E90FF11D80818093BB0053
:1004A0009F5F9093DA019091DA018091DB019817B8
:1004B00010F485EC01C085E88093BC000FC085EC8A
:1004C0008093BC0009C01092DF0185ED8093BC00D1
:1004D0008091BC0084FDFCCF1092CE01FF91EF9182
:1004E000BF91AF919F918F917F916F915F914F914C
:1004F0003F912F910F900FBE0F901F9018959C0168
:10050000F999FECF32BD21BDF89A80B508959C01BE
:10051000F999FECF1FBA32BD21BD60BD0FB6F89468
:10052000FA9AF99A0FBE0895BF92CF92DF92EF9296
:10053000FF920F931F93CF93DF93CAEAD1E03DEE72
:10054000C32E31E0D32E888190E0FC01EE0FFF1F17
:10055000EC5CFC4FDC01AC5BBC4F60817181BC90FA
:100560008081918168177907C1F7BB20B9F080E0DD
:1005700090E00E947A1C7B018C016B2D70E080E082
:1005800090E00E947A1C9B01AC01C801B7010E9457
:10059000E11BF6016083718382839383219684E05B
:1005A00090E0C80ED91E91E0C03BD90761F620E06B
:1005B00030E0F901EE0FFF1FEC5CFC4F118210825E
:1005C000D901AC5BBC4F1C9280819181892B89F74A
:1005D0002F5F3F4F2830310561F7DF91CF911F9199
:1005E0000F91FF90EF90DF90CF90BF900895EF9222
:1005F000FF920F931F93880F991FFC01E055FE4F48
:1006000020813181DC01AA0FBB1F37FF06C0FD012D
:10061000E351FE4FA35FBD4F05C0FD01E35FFD4FFA
:10062000A351BE4F6D917D918D919C91208131811F
:10063000428153810E94FC1A7B018C0120E030E052
:1006400040E050E00E94BF1D18165CF4C801B701DD
:1006500020E030E041E654E40E94BF1D18165CF033
:100660000FC0C801B70120E030E041E654EC0E9421
:10067000DA1B88232CF4809151038F5F8093510300
:10068000C801B70120E030E041E654EC0E94DA1BDB
:1006900088235CF40F2EF0E0EF2EF0E0FF2EF1E661
:1006A0000F2FF4EC1F2FF02D14C0C801B70120E06C
:1006B00030E041E654E40E94BF1D181654F40F2E9A
:1006C000F0E0EF2EF0E0FF2EF1E60F2FF4E41F2F05
:1006D000F02DB701C8011F910F91FF90EF90089581
:1006E0001F920F920FB60F9211242F933F934F93A7
:1006F0006F937F938F939F93EF93FF93DF93CF93AA
:1007000000D0CDB7DEB780917800898380917900E1
:100710008A83E0913303F0E0EC5BFC4F80818F3300
:10072000E0F4E0913303F0E0EE0FFF1FEC5CFC4FD0
:10073000608171814A812981942F80E030E0822B91
:10074000932B860F971F91838083E0913303F0E012
:10075000EC5BFC4F80818F5F8083809133038F5FE0
:1007600080933303809133038770809333038091A8
:10077000A901909133038295880F880F807C892B83
:1007800080937C0080917A00806480937A000F903F
:100790000F90CF91DF91FF91EF919F918F917F917A
:1007A0006F914F913F912F910F900FBE0F901F901F
:1007B00018958F929F92AF92BF92CF92DF92EF9255
:1007C000FF920F931F934C016B015A01FB0164814F
:1007D000758186819781FA0120853185428553850F
:1007E0000E94CA1D7B018C01F6016085718582859E
:1007F0009385F50124813581468157810E94CA1D68
:100800009B01AC01C801B7010E94FC1AF40160838E
:10081000718382839383F6016085718582859385D8
:10082000F50120813181428153810E94CA1D7B01E3
:100830008C01F6016081718182819381F5012085AF
:100840003185428553850E94CA1D9B01AC01C801B8
:10085000B7010E94FC1AF401648375838683978331
:10086000F6016081718182819381F5012481358156
:10087000468157810E94CA1D7B018C01F60164816B
:10088000758186819781F501208131814281538173
:100890000E94CA1D9B01AC01C801B7010E94FC1A4D
:1008A000F40160877187828793871F910F91FF9072
:1008B000EF90DF90CF90BF90AF909F908F90089572
:1008C0002F923F924F925F926F927F928F929F9260
:1008D000AF92BF92CF92DF92EF92FF920F931F934E
:1008E000CF93DF933B011A016C01AA24BB247CE067
:1008F000472E512C460C571C45C0F6016081718172
:1009000082819381288139814A815B810E94CA1D3D
:100910007B018C01F60164817581868197812C852C
:100920003D854E855F850E94CA1D9B01AC01C801B3
:10093000B7010E94FD1A7B018C01F601608571856B
:1009400082859385288D398D4A8D5B8D0E94CA1DC5
:100950009B01AC01C801B7010E94FD1AF40161932B
:100960007193819391934F012496C415D50529F66F
:100970008CE090E0A80EB91EC80ED91E94E2A9160C
:10098000B10429F0E30141018A0C9B1CB6CFDF9131
:10099000CF911F910F91FF90EF90DF90CF90BF907C
:1009A000AF909F908F907F906F905F904F903F900F
:1009B0002F9008952F923F924F925F926F927F9265
:1009C0008F929F92AF92BF92CF92DF92EF92FF925F
:1009D0000F931F93DF93CF9300D000D0CDB7DEB736
:1009E00080E090E00E94F70228E03AE843E85CE308
:1009F0000E94CA1D6093390270933A0280933B02B1
:100A000090933C0281E090E00E94F70228E03AE8EF
:100A100043E85CE30E94CA1D60933D0270933E026E
:100A200080933F029093400282E090E00E94F702A0
:100A300023E136E646E85CE30E94CA1D609341026A
:100A400070934202809343029093440283E090E0CB
:100A50000E94F70260932D0270932E0280932F0262
:100A60009093300284E090E00E94F702609331029C
:100A700070933202809333029093340285E090E0C9
:100A80000E94F7025B016C01EE24FF2487010759E5
:100A90001D4FF701E75CFD4FD701A35ABD4F6081A1
:100AA0007181828193812D913D914D915C910E9444
:100AB000FD1AD8016D937D938D939C931397E4E079
:100AC000F0E0EE0EFF1EFCE0EF16F104F9F6EE2466
:100AD000FF2487010B5B1D4FF701E759FD4FD7013D
:100AE000AF5ABD4F60817181828193812D913D917B
:100AF0004D915C910E94FD1AD8016D937D938D9369
:100B00009C931397E4E0F0E0EE0EFF1EFCE0EF167E
:100B1000F104F9F6E090E002F090E1020091E202C7
:100B20001091E302C801B701209171023091720265
:100B300040917302509174020E94CA1D28ED3AEB55
:100B400044E251E40E94CA1D9B01AC016091310254
:100B50007091320280913302909134020E94FD1A0A
:100B60006093310270933202809333029093340287
:100B7000C801B70120916D0230916E0240916F0261
:100B8000509170020E94CA1D28ED3AEB44E251ECEC
:100B90000E94CA1D9B01AC01C601B5010E94FD1A4D
:100BA0006093350270933602809337029093380237
:100BB0000F2EF0E02F2EF0E03F2EF0E04F2EF0E071
:100BC0005F2EF02D20927F013092800140928101B2
:100BD00050928201E0904F01F0905001009151013C
:100BE0001091520157016801D7FAD094D7F8D094E8
:100BF00060904D0270904E0280904F029090500293
:100C0000C601B501A40193010E94CA1D609383012E
:100C100070938401809385019093860180914902AD
:100C200090914A02A0914B02B0914C0289839A8321
:100C3000AB83BC83C801B70129813A814B815C81B8
:100C40000E94CA1D60938701709388018093890177
:100C500090938A01C801B701A40193010E94CA1DA3
:100C600060938B0170938C0180938D0190938E0122
:100C700020928F0130929001409291015092920106
:100C80006090450270904602809047029090480222
:100C9000C601B501A40193010E94CA1D609393018E
:100CA000709394018093950190939601C601B501CC
:100CB00029813A814B815C810E94CA1D6093970112
:100CC000709398018093990190939A01C801B7019C
:100CD000A40193010E94CA1D60939B0170939C0123
:100CE00080939D0190939E0120929F013092A001DC
:100CF0004092A1015092A2018BE591E06FE771E073
:100D000042EA52E00E946004EBE5EE2EE1E0FE2EA6
:100D100002EA12E0D7016D917D918D919C91F801CD
:100D200020813181428153810E94FD1AD7016D9348
:100D30007D938D939C93139714966D917D918D91D6
:100D40009C911797F80124813581468157810E9433
:100D5000FD1AD70114966D937D938D939C931797ED
:100D600018966D917D918D919C911B97F80120852E
:100D70003185428553850E94FD1AD70118966D93DF
:100D80007D938D939C931B97ECE0F0E0EE0EFF1E9D
:100D9000045F1F4FFFE7EF16F1E0FF0609F0BACF3F
:100DA0000F900F900F900F90CF91DF911F910F91A7
:100DB000FF90EF90DF90CF90BF90AF909F908F907B
:100DC0007F906F905F904F903F902F900895CF92BB
:100DD000DF92EF92FF920F931F93DF93CF93CDB7E4
:100DE000DEB76E970FB6F894DEBF0FBECDBF7B01A6
:100DF0008C0182E094E060E071E00E94711981E171
:100E000089838AE08A83EB82BB2717FDBA95A12FDD
:100E1000902F8F2D8C83C801BB2797FDB095AB2FEA
:100E20008D83E12EFF2400271127EE8280914C0351
:100E300090914D038F83988780914E0390914F033B
:100E400089879A87809150038B87809151038C8783
:100E5000809152038D87809153038E878091540334
:100E60008F8780915503888B80915603898B809161
:100E700057038A8B809158038B8B7E010894E11C69
:100E8000F11C8701F4E1CF2ED12CCC0EDD1E82E0C7
:100E900094E0F80161918F010E9469190C151D05FC
:100EA000B1F760E0DD24F70181917F01680FD60E74
:100EB000E017F107C1F782E094E00E94691982E02F
:100EC00094E06D2D0E94691910924D0310924C030D
:100ED00010924F0310924E03109250031092510340
:100EE0001092520310925303109254031092550320
:100EF0001092560310925703109258036E960FB635
:100F0000F894DEBF0FBECDBFCF91DF911F910F913F
:100F1000FF90EF90DF90CF900895CF92DF92EF9205
:100F2000FF920F931F93DF93CF93CDB7DEB76497F4
:100F30000FB6F894DEBF0FBECDBF8091CA0290916C
:100F4000CB028E010F5F1F4F019709F0B6C0809151
:100F500058038F5F809358031092CB021092CA02FD
:100F600082E094E060E071E00E94711983E189837E
:100F700083E08A838091D0029091D102A091D20225
:100F8000B091D3028B83292F3A2F4B2F552747FD42
:100F90005A952C839D01552737FD5095452F2D835C
:100FA0008B2F9927AA27BB278E838091CC02909103
:100FB000CD02A091CE02B091CF028F83292F3A2F7C
:100FC0004B2F552747FD5A9528879D01552737FDFB
:100FD0005095452F29878B2F9927AA27BB278A87CA
:100FE0006091D4027091D5028091D6029091D7027F
:100FF00024E630E040E050E00E94EF1E2B873C8763
:101000006091E0027091E1028091E2029091E3022E
:1010100020E030E048EC52E40E94CA1D0E94491CC6
:101020006D877E876091A5017091A6018091A701CF
:101030009091A80120E030E048EC52E40E94CA1DE3
:101040000E94491C6F87788B8091D8029091D902B9
:10105000A091DA02B091DB02898B292F3A2F4B2F16
:10106000552747FD5A952A8B9D01552737FD5095E9
:10107000452F2B8B8B2F9927AA27BB278C8B8091F1
:10108000C3018D8B780126E1C22ED12CCC0EDD1E42
:1010900082E094E0F80161918F010E9469190C15BA
:1010A0001D05B1F760E0DD24F70181917F01680F34
:1010B000D60EE017F107C1F76CC082E094E060E063
:1010C00071E00E94711986E0898382E08A836091D1
:1010D000750270917602809177029091780221EEEC
:1010E0003EE245E652E40E94CA1D20E030E048ECB2
:1010F00052E40E94CA1D0E94491C6B837C8360914C
:10110000790270917A0280917B0290917C0221EEAB
:101110003EE245E652E40E94CA1D20E030E048EC81
:1011200052E40E94CA1D0E94491C6D837E83609117
:101130007D0270917E0280917F029091800221EE6B
:101140003EE245E652E40E94CA1D20E030E048EC51
:1011500052E40E94CA1D0E94491C6F83788778015F
:1011600099E0C92ED12CCC0EDD1E82E094E0F8016E
:1011700061918F010E9469190C151D05B1F760E09E
:10118000DD24F70181917F01680FD60EE017F1078A
:10119000C1F782E094E00E94691982E094E06D2D2D
:1011A0000E94691964960FB6F894DEBF0FBECDBFDA
:1011B000CF91DF911F910F91FF90EF90DF90CF9033
:1011C00008958091F402813009F0C5C18091F50243
:1011D000833009F4B3C0843020F4823009F0BBC1FD
:1011E00007C0863009F4DCC0823109F0B4C136C1D1
:1011F000809156038F5F809356038091F90280930C
:10120000C6028091FA028093C7028091FB0280930C
:10121000C8028091FC028093C9028091C60290911D
:10122000C702A091C802B091C9028093D8029093DE
:10123000D902A093DA02B093DB028091FD02809381
:10124000C6028091FE028093C7028091FF028093C4
:10125000C802809100038093C9028091C6029091D8
:10126000C702A091C802B091C9028093D0029093A6
:10127000D102A093D202B093D30280910103809354
:10128000C602809102038093C7028091030380937A
:10129000C802809104038093C9028091C602909194
:1012A000C702A091C802B091C9028093CC0290936A
:1012B000CD02A093CE02B093CF028091050380931C
:1012C000C602809106038093C70280910703809332
:1012D000C802809108038093C9028091C602909150
:1012E000C702A091C802B091C9028093DC0290931A
:1012F000DD02A093DE02B093DF02809109038093A8
:10130000C60280910A038093C70280910B038093E9
:10131000C80280910C038093C9028091C60290910B
:10132000C702A091C802B091C9028093D4029093E1
:10133000D502A093D602B093D70208958091FD0202
:10134000833018F18091FE0280FF1FC01092A4012B
:101350001092A30181E090E09093CB028093CA02A7
:1013600086E061E00E94D7168091790390917A031C
:10137000A0917B03B0917C038093ED029093EE02E9
:10138000A093EF02B093F002089581E090E0909373
:10139000A4018093A30186E060E00E94D71608951F
:1013A00080910303833018F18091040380FF1FC0F4
:1013B0001092A4011092A30181E090E09093CB02DF
:1013C0008093CA0286E061E00E94D716809179037B
:1013D00090917A03A0917B03B0917C038093ED02FE
:1013E0009093EE02A093EF02B093F0020AC081E066
:1013F00090E09093A4018093A30186E060E00E94B6
:10140000D71680911D038093C60280911E0380939E
:10141000C70280911F038093C802809120038093AC
:10142000C9026091C6027091C7028091C802909172
:10143000C9020E947C1C20E030E048EC52E40E948B
:10144000E11B6093E9027093EA028093EB029093B0
:10145000EC02809128038093E8020895809157035D
:101460008F5F80935703809109038093C602809118
:101470000A038093C70280910B038093C802809176
:101480000C038093C9026091C6027091C7028091DB
:10149000C8029091C9020E947C1C20E030E048EC18
:1014A00052E40E94E11B6093E0027093E10280939A
:1014B000E2029093E30280910D038093C602809133
:1014C0000E038093C70280910F038093C80280911E
:1014D00010038093C9026091C6027091C702809187
:1014E000C8029091C9020E947C1C20E030E048ECC8
:1014F00052E40E94E11B6093E4027093E502809342
:10150000E6029093E702809111038093C6028091D6
:1015100012038093C702809113038093C8028091C5
:1015200014038093C9026091C6027091C702809132
:10153000C8029091C9020E947C1C20E030E543EC77
:1015400057E40E94E11B6093A5017093A60180936C
:10155000A7019093A80108958F929F92AF92BF9296
:10156000CF92DF92EF92FF920F931F93CF93DF936F
:1015700082E094E00E94A918082F10E001151105DF
:1015800009F425C1C0E0D0E0A5E09A2EF7E08F2E47
:10159000E6E0CE2E78E0B72E62E0A62EFF24F3948C
:1015A00053E0E52E44E0D42E82E094E00E94BD1882
:1015B000282F8091F302843009F445C0853050F41F
:1015C0008130D9F0813098F08230F9F0833009F021
:1015D000F9C02AC0863009F464C0863008F452C0CD
:1015E000873009F47EC0883009F0ECC07FC0253B0D
:1015F00009F0E8C0F092F302E5C0223619F4A09297
:10160000F302E0C01092F302DDC02093F402909147
:10161000F102920F9093F1028091F202890F809370
:10162000F202E092F302CEC02093F5029091F10213
:10163000920F9093F1028091F202890F8093F2024F
:10164000D092F302BFC02093F6029091F102920F64
:101650009093F1028091F202890F8093F2029092AE
:10166000F302293308F4AEC01092F3021092F8028C
:101670001092F1021092F202809154038F5F8093D6
:101680005403A0C02093F7029091F102920F90931F
:10169000F1028091F202890F8093F202C092F3026C
:1016A00091C03091F8024091F602341708F08AC0D8
:1016B000E32FF0E0E750FD4F20839091F102920F6D
:1016C0009093F1028091F202890F8093F202832FAE
:1016D0008F5F8093F802841709F074C08092F30240
:1016E00071C020933103B092F3026CC02093320397
:1016F0009091F10280913103981739F48091F202B0
:10170000821719F40E94E10845C0809155038F5F4C
:101710008093550382E094E065E071E00E947119C6
:101720006091310382E094E070E00E945E1A82E0F2
:1017300094E069E071E00E9471196091F10282E029
:1017400094E070E00E945E1A82E094E06BE071E049
:101750000E94901982E094E065E071E00E947119A6
:101760006091320382E094E070E00E945E1A82E0B1
:1017700094E069E071E00E9471196091F20282E0E8
:1017800094E070E00E945E1A82E094E06BE071E009
:101790000E9490191092F3021092F8021092F10236
:1017A0001092F2028091790390917A03A0917B03C9
:1017B000B0917C038093ED029093EE02A093EF0230
:1017C000B093F0022196C017D1070CF4EDCE8091B2
:1017D000790390917A03A0917B03B0917C032091CF
:1017E000ED023091EE024091EF025091F002821B27
:1017F000930BA40BB50B815D9740A040B04050F017
:1018000086E060E00E94D71681E090E09093A4010A
:101810008093A301DF91CF911F910F91FF90EF90E3
:10182000DF90CF90BF90AF909F908F900895609180
:1018300073017091740180917501909176010E94FD
:10184000611B90586093790270937A0280937B02B7
:1018500090937C0260917701709178018091790179
:1018600090917A0120917B0130917C0140917D0122
:1018700050917E010E94871B6093750270937602DF
:10188000809377029093780260916701709168016C
:101890008091690190916A0120915B0130915C0116
:1018A00040915D0150915E010E94871B60937D0213
:1018B00070937E0280937F029093800208952F920E
:1018C0003F924F925F926F927F928F929F92AF92D0
:1018D000BF92CF92DF92EF92FF920F931F93DF930D
:1018E000CF93CDB7DEB7A5970FB6F894DEBF0FBE86
:1018F000CDBF4BE5642E41E0742E63010F2EF0E066
:10190000EF2EF0E0FF2EF0E00F2FF0E01F2FF02D74
:10191000F6016081718182819381248535854685B8
:1019200057850E94CA1D9B01AC01C801B7010E94E6
:10193000FD1A7B018C0184E090E0C80ED91E97E669
:10194000C91691E0D90621F7C801B70120E030E0BF
:1019500040E05FEB0E94CA1D4B015C0116017E0155
:101960000894E11CF11C86016701F80161917191F5
:10197000819191918F01A50194010E94CA1DF601E8
:1019800061937193819391936F01F1E003371F0786
:1019900061F73DE0432E512C4C0E5D1E0851104066
:1019A0006201F80161917191819191918F01A5017D
:1019B00094010E94CA1DF6016193719381939193E2
:1019C0006F01F1E007361F0761F78E01035F1F4FBC
:1019D000F7016081718182819381F30121913191BD
:1019E000419151913F010E94FD1AF701619371935A
:1019F000819391937F01E017F10751F7320107E6D8
:101A000011E029E1E22EF12CEC0EFD1EF3016081C4
:101A1000718182819381F80121913191419151919C
:101A20008F010E94FD1AF301619371938193919349
:101A30003F01EE15FF0551F7CF01BE016F5F7F4FEC
:101A4000AE01435F5F4F0E94D90329813A814B81E8
:101A50005C81CA01B9010E94CA1D20E030E040E06B
:101A600050E00E94FD1A7B018C012D813E814F8147
:101A70005885CA01B9010E94CA1D9B01AC01C80169
:101A8000B7010E94FD1A7B018C0129853A854B859F
:101A90005C85CA01B9010E94CA1D9B01AC01C80145
:101AA000B7010E94FD1A6B017C0120E030E048EC98
:101AB0005FE30E94DA1B8823DCF4C701B6012AE049
:101AC00037ED43E25FE30E94BF1D18168CF460E01F
:101AD00070E080E490E4A70196010E94FC1A20E0E7
:101AE00030E040E05FE30E94CA1D6B017C0127C02B
:101AF000C701B60120E030E048EC52E40E94DA1B56
:101B00008823FCF4C701B6012AE037ED43E25CE329
:101B10000E94BF1D1816ACF4C701B6010E94371E03
:101B20009B01AC0160E070E080E89FE30E94E11B54
:101B30006B017C01809152038F5F809352031DA241
:101B400007C0809153038F5F80935303F1E0FDA39F
:101B5000AA24BB244E010894811C911C8501055ABE
:101B60001E4FF401EA0DFB1D60817181828193811A
:101B7000A70196010E94CA1DF801608371838283C8
:101B8000938384E090E0A80EB91E9CE0A916B104EE
:101B900029F72D853E854F855889CA01B9010E94D4
:101BA000CA1D20E030E040E050E00E94FD1A7B01B9
:101BB0008C0129893A894B895C89CA01B9010E9443
:101BC000CA1D9B01AC01C801B7010E94FD1A7B012F
:101BD0008C012D893E894F89588DCA01B9010E9417
:101BE000CA1D9B01AC01C801B7010E94FD1A7B010F
:101BF0008C0120E030E048EC5FE30E94DA1B882390
:101C0000DCF4C801B7012AE037ED43E25FE30E944C
:101C1000BF1D18168CF460E070E080E490E4A80129
:101C200097010E94FC1A20E030E040E05FE30E9450
:101C3000CA1D7B018C012FC0C801B70120E030E034
:101C400048EC52E40E94DA1B8823F4F4C801B7017F
:101C50002AE037ED43E25CE30E94BF1D1816A4F4AE
:101C6000C801B7010E94371E9B01AC0160E070E023
:101C700080E89FE30E94E11B7B018C01809152036D
:101C80008F5F8093520307C0809153038F5F8093CF
:101C90005303E1E0EDA3F201619171918191919182
:101CA0002F01A80197010E94CA1DF1016193719350
:101CB000819391931F014614570469F7298D3A8D3A
:101CC0004B8D5C8DCA01B9010E94CA1D20E030E035
:101CD00040E050E00E94FD1A7B018C012D8D3E8D6D
:101CE0004F8D58A1CA01B9010E94CA1D9B01AC01C8
:101CF000C801B7010E94FD1A7B018C0129A13AA1FC
:101D00004BA15CA1CA01B9010E94CA1D9B01AC0193
:101D1000C801B7010E94FD1A7B018C0120E030E070
:101D200048EC5FE30E94DA1B8823DCF4C801B701AA
:101D30002AE037ED43E25FE30E94BF1D18168CF4E2
:101D400060E070E080E490E4A80197010E94FC1A32
:101D500020E030E040E05FE30E94CA1D7B018C017F
:101D60002FC0C801B70120E030E048EC52E40E94E7
:101D7000DA1B8823F4F4C801B7012AE037ED43E207
:101D80005CE30E94BF1D1816A4F4C801B7010E94AD
:101D9000371E9B01AC0160E070E080E89FE30E9489
:101DA000E11B7B018C01809152038F5F8093520372
:101DB00007C0809153038F5F80935303F1E0FDA32D
:101DC00099E1C92ED12CCC0EDD1E83E7A82E81E02F
:101DD000B82EB5E28B2E912C8C0E9D1EF6016191D2
:101DE0007191819191916F01A80197010E94CA1D83
:101DF000F50161937193819391935F01C814D904A4
:101E000069F7FDA1FF2309F450C020E030E040E86D
:101E10005FE320935B0130935C0140935D0150933D
:101E20005E0180E090E0A0E0B0E080935F019093DD
:101E30006001A0936101B09362018093630190936C
:101E40006401A0936501B09366018093670190934C
:101E50006801A0936901B0936A0120936B013093EC
:101E60006C0140936D0150936E0180936F019093CC
:101E70007001A0937101B0937201809373019093EC
:101E80007401A0937501B0937601809377019093CC
:101E90007801A0937901B0937A0120937B0130936C
:101EA0007C0140937D0150937E01A5960FB6F89476
:101EB000DEBF0FBECDBFCF91DF911F910F91FF907D
:101EC000EF90DF90CF90BF90AF909F908F907F90DA
:101ED0006F905F904F903F902F9008952F923F9278
:101EE0004F925F926F927F928F929F92AF92BF922A
:101EF000CF92DF92EF92FF920F931F93CF93DF93D6
:101F000020912D0230912E0240912F0250913002EB
:101F1000E0903102F09032020091330210913402CD
:101F200060903502709036028090370290903802AF
:101F3000CA01B9010E94CA1D5B016C01C801B70149
:101F4000A80197010E94CA1D9B01AC01C601B50101
:101F50000E94FD1A7B018C01C401B301A40193010D
:101F60000E94CA1D9B01AC01C801B7010E94FD1A65
:101F70000E94371E20E030E04AEC52E40E94E11B50
:101F80009B01AC0160E070E080E89FE30E94FC1AD6
:101F90007B018C0120E030E040E050E00E94BF1D5A
:101FA00018164CF4C801B70120E030E040E050ECD6
:101FB0000E94CA1D06C0C801B701A80197010E946E
:101FC000FD1A20E030E040E85FE30E94FD1A20E0C7
:101FD00030E040E050E00E94DA1B88235CF40F2ED2
:101FE000F0E0AF2EF0E0BF2EF0E0CF2EF0E0DF2EDD
:101FF000F02D53C0C801B70120E030E040E050E0D0
:102000000E94BF1D18164CF4C801B70120E030E053
:1020100040E050EC0E94CA1D06C0C801B701A801EB
:1020200097010E94FD1A20E030E040E85FE30E9443
:10203000FD1A20E030E040E85FE30E94BF1D181663
:102040005CF40F2EF0E0AF2EF0E0BF2EF0E8CF2EC4
:10205000FFE3DF2EF02D21C0C801B70120E030E002
:1020600040E050E00E94BF1D18164CF4C801B701B3
:1020700020E030E040E050EC0E94CA1D06C0C801DC
:10208000B701A80197010E94FD1A20E030E040E866
:102090005FE30E94FD1A5B016C016091C2017091C7
:1020A000C30180E090E00E947A1C7B018C01C60194
:1020B000B50120E030E040E05FE30E94FC1A20E040
:1020C00030E040E853E40E94CA1D9B01AC01C80106
:1020D000B7010E94FD1A0E944E1C6138710518F468
:1020E00061E870E006C08FEF6E37780710F06DE79B
:1020F0007FEF7093C3016093C20181E892E06DE2CB
:1021000072E043E751E00E94D903C601B5012FE810
:1021100032EC45E75CE30E94CA1D3B014C01C0E084
:10212000D0E08E010F5A1D4FFE01EF57FD4F608129
:10213000718182819381A40193010E94CA1DF801DB
:1021400060837183828393832496CC30D10549F7D1
:10215000C601B5012CEA35EC47E257E30E94CA1DDF
:102160006B017C01C0E0D0E08E01035A1C4FFE01E0
:10217000EF57FD4F6081718182819381A7019601A4
:102180000E94CA1DF8016083718382839383249621
:10219000CC30D10549F77DE5872E72E0972E6DE5AD
:1021A000662E63E0762EE4018301688179818A815D
:1021B0009B81F80121913191419151918F010E94B0
:1021C000FD1A6993799389939993F2E0C936DF07F1
:1021D00061F76091E4027091E5028091E6029091CE
:1021E000E70220E030E040E050E40E94BF1D87FF9E
:1021F0004EC020905D0230905E0240905F02509091
:102200006002C201B101A20191010E94CA1D20E039
:1022100030E040E050E00E94FD1A7B018C016090AC
:102220006102709062028090630290906402C40127
:10223000B301A40193010E94CA1D9B01AC01C80116
:10224000B7010E94FD1A7B018C01A0906502B0903D
:102250006602C0906702D0906802C601B501A6016F
:1022600095010E94CA1D9B01AC01C801B7010E94E3
:10227000FD1A0E94371E7B018C0126E33DE847EAE8
:1022800050E40E94BF1D18160CF4D1C004C1609127
:10229000A5017091A6018091A7019091A80125E365
:1022A0003AEF4EE85CE30E94CA1D7B018C01C80135
:1022B0000E94DE1B5B016C016093990270939A028D
:1022C00080939B0290939C02B701C8010E942D1E2F
:1022D00060935701709358018093590190935A016C
:1022E00020915B0130915C0140915D0150915E0154
:1022F0000E94CA1D7B018C01C601B50120916701B6
:10230000309168014091690150916A010E94CA1D93
:102310009B01AC01C801B7010E94FC1A7B018C0132
:10232000609353017093540180935501909356012B
:10233000C3E7D1E05DE8C52E52E0D52E69917991D1
:1023400089919991A80197010E94CA1DF601619394
:102350007193819391936F01F1E0CF37DF0771F7AC
:10236000C0E0D0E08E0107591C4FFE01E357FD4F3E
:1023700060817181828193812AE939E949E95FE3CA
:102380000E94CA1DF801608371838283938324961F
:10239000CC30D10539F7C1E5D2E009E613E0688118
:1023A00079818A819B81F8012191319141915191EB
:1023B0008F010E94FD1A6993799389939993F2E0B2
:1023C000CD35DF0761F7C0E0D0E08E01035A1C4F26
:1023D000FE01E357FD4F608171818281938127E186
:1023E00037EB41E558E30E94CA1DF8016083718311
:1023F000828393832496CC30D10539F7F401608130
:10240000718182819381F3012191319141915191A7
:102410003F010E94FD1AF40161937193819391939E
:102420004F01F9E68F16F2E09F0641F7E2CE66E330
:102430007DE887E290E4A80197010E94E11B7B01FF
:102440008C01C201B101A80197010E94CA1D6093CD
:102450005D0270935E0280935F0290936002C401FC
:10246000B301A80197010E94CA1D60936102709395
:1024700062028093630290936402C601B501A801D1
:1024800097010E94CA1D6093650270936602809353
:10249000670290936802DF91CF911F910F91FF9097
:1024A000EF90DF90CF90BF90AF909F908F907F90F4
:1024B0006F905F904F903F902F9008950F931F93D0
:1024C000CF93DF930DE012E0C2E0D0E0F999FECFA8
:1024D000CE016FE772E00E94D100A0E0B0E0BC0145
:1024E000CD010E947A1C20E030E048EC52E40E94CA
:1024F000E11B20E030E048E453E40E94FD1A9B0118
:10250000AC01CB01DA01F80181939193A193B193CE
:102510008F0182E094E0A901BD010E94F11A229688
:10252000CE30D10599F682E094E06EE171E00E9430
:102530009019DF91CF911F910F91089582E094E05F
:1025400040E056E960E070E00E94B01782E061E090
:102550000E94B71682E061E00E94D71685E061E034
:102560000E94B71686E061E00E94B71687E061E03E
:102570000E94B71688E060E00E94B71688E061E02C
:102580000E94D7161092A901EAE7F0E080818868DE
:1025900080838081806480830E945E126AEF70E095
:1025A00080E090E00E9453160E949402809179038B
:1025B00090917A03A0917B03B0917C038093E40116
:1025C0009093E501A093E601B093E70164E170E028
:1025D00080E090E00E94531608956F927F928F9250
:1025E0009F92AF92BF92CF92DF92EF92FF920F93A2
:1025F0001F93CF93DF93C0E0D0E087E060E00E94BC
:10260000D71686E061E00E94D71685E060E00E9460
:10261000D71662E370E080E090E00E9453160E94BB
:10262000940287E061E00E94D71686E060E00E9495
:10263000D71685E061E00E94D71662E370E080E083
:1026400090E00E9453162196CB34D105B1F685E077
:1026500060E00E94D71687E060E00E94D7160E94D3
:10266000940264E170E080E090E00E9453160E94C2
:1026700094028091ED019091EE01A091EF01B09153
:10268000F00180930D0290930E02A0930F02B0937D
:1026900010028091F1019091F201A091F301B091AB
:1026A000F4018093110290931202A0931302B0934D
:1026B00014028091F5019091F601A091F701B0917B
:1026C000F8018093150290931602A0931702B0931D
:1026D00018028091F9019091FA01A091FB01B0914B
:1026E000FC018093190290931A02A0931B02B093ED
:1026F0001C028091FD019091FE01A091FF01B0911B
:10270000000280931D0290931E02A0931F02B093BB
:1027100020028091010290910202A0910302B091E7
:1027200004028093210290932202A0932302B0938B
:10273000240264E170E080E090E00E945316CC2413
:10274000DD24B5E26B2EB2E07B2E0E949402ADE058
:10275000AA2EA2E0BA2EFDEE8F2EF1E09F2EE5010B
:10276000688179818A819B812DEC3CEC4CE45FE3AC
:102770000E94CA1D7B018C01F401619171918191CC
:1027800091914F012DEC3CEC4CE45EE30E94CA1D9C
:102790009B01AC01C801B7010E94FD1A69937993AE
:1027A00089939993E5E2EE2EE2E0FE2E6C167D060B
:1027B000B9F664E170E080E090E00E94531608945E
:1027C000C11CD11CF0E9CF16F1E0DF0609F0BDCF46
:1027D0002091BA013091BB0185E690E0289FB001BD
:1027E000299F700D389F700D1124882777FD8095E3
:1027F000982F0E947C1C9B01AC01F3019291829165
:10280000729162918F010E94FC1AF80160837183BA
:1028100082839383C2E0D0E0F501408151816281DF
:10282000738182E094E00E94F11AF5016081718168
:1028300082819381F999FECF20E030E048E453E4AF
:102840000E94FC1A20E030E048EC52E40E94CA1DCD
:102850000E944E1C9B01AC01CE01B90147E852E039
:102860000E94E70084E090E0A80EB91E2296EA14C8
:10287000FB0491F681E08093EC0182E094E064E354
:1028800071E00E949019DF91CF911F910F91FF90FD
:10289000EF90DF90CF90BF90AF909F908F907F9000
:1028A0006F900895AF92BF92CF92DF92EF92FF9216
:1028B0000F931F930E9445169B01AC012093E001EA
:1028C0003093E1014093E2015093E301E090E40191
:1028D000F090E5010091E6011091E70159016A01CC
:1028E000AE18BF08C00AD10A84E1A816B104C10419
:1028F000D1040CF472C180919D0290919E020196C8
:1029000090939E0280939D02E092E801F092E9018B
:102910000093EA011093EB012093E4013093E50169
:102920004093E6015093E70180914C0390914D0351
:10293000019690934D0380934C0380914E039091A8
:102940004F03AA2797FDA095BA2F8A159B05AC05C2
:10295000BD053CF4C9018E199F0990934F038093E4
:102960004E03C601B5010E947C1C20E030E04AE71E
:1029700054E40E94E11B60934F01709350018093D7
:1029800051019093520120E030E040E85FE30E9463
:10299000BF1D181664F480E090E0A0E0B0E08093E2
:1029A0004F0190935001A0935101B09352010E94A6
:1029B00094020E94DA040E945F0C0E946E0F0E9433
:1029C000170C0E948D07E0903902F0903A020091B6
:1029D0003B0210913C02C801B70120E030E040E02A
:1029E00050E00E94BF1D18165CF4C801B70126E331
:1029F0003DE847EA50E40E94BF1D87FF5AC00BC064
:102A0000C801B70126E33DE847EA50EC0E94DA1B13
:102A100018160CF04EC0E0903D02F0903E0200917E
:102A20003F0210914002C801B70120E030E040E0D1
:102A300050E00E94BF1D18165CF4C801B70126E3E0
:102A40003DE847EA50E40E94BF1D87FF32C00AC03C
:102A5000C801B70126E33DE847EA50EC0E94DA1BC3
:102A600018163CF5E0904102F090420200914302BA
:102A700010914402C801B70120E030E040E050E08E
:102A80000E94BF1D18165CF4C801B70126E33DE89B
:102A900047EA50E40E94BF1D87FF0BC016C0C80163
:102AA000B70126E33DE847EA50EC0E94DA1B18160E
:102AB00064F081E08093A102809150038F5F809346
:102AC000500385E061E00E94D71680919F029091AB
:102AD000A00201969093A00280939F02059708F4AC
:102AE0004CC01092A00210929F020E94AC0A88E093
:102AF0000E942417892B31F48091EC01882311F472
:102B00000E94ED128091A102882379F085E061E0B6
:102B10000E94D7168091A102883018F01092A1026D
:102B200008C08F5F8093A10204C085E060E00E942E
:102B3000D7166091E4027091E5028091E6029091CF
:102B4000E70220E030E040E050E40E94DA1B8823F6
:102B50001CF487E061E002C087E060E00E94D716C5
:102B60008091A3019091A401892B19F486E061E082
:102B700002C086E060E00E94D7162091E00130910B
:102B8000E1014091E2015091E3018091590390915C
:102B90005A03A0915B03B0915C03281B390B4A0BCD
:102BA0005B0B213385E7380780E0480780E0580752
:102BB000A4F0CA01B9010E94E7068091E00190915A
:102BC000E101A091E201B091E30180935903909358
:102BD0005A03A0935B03B0935C031F910F91FF9086
:102BE000EF90DF90CF90BF90AF9008950E947D1638
:102BF0000E949E120E945214FDCF1F920F920FB698
:102C00000F9211242F933F938F939F93AF93BF9372
:102C10008091790390917A03A0917B03B0917C031A
:102C200030917D030196A11DB11D232F2D5F2D37FE
:102C300020F02D570196A11DB11D20937D03809397
:102C4000790390937A03A0937B03B0937C038091E4
:102C5000750390917603A0917703B0917803019664
:102C6000A11DB11D8093750390937603A093770304
:102C7000B0937803BF91AF919F918F913F912F9126
:102C80000F900FBE0F901F9018958FB7F89420915A
:102C9000790330917A0340917B0350917C038FBF7D
:102CA000B901CA010895EF92FF920F931F937B0120
:102CB0008C018FB7F8944091790350917A03609119
:102CC0007B0370917C038FBF2FB7F89480917903B9
:102CD00090917A03A0917B03B0917C032FBF841B5A
:102CE000950BA60BB70BE816F9060A071B0760F74A
:102CF0001F910F91FF90EF900895789484B58260B2
:102D000084BD84B5816084BD85B5826085BD85B58F
:102D1000816085BDEEE6F0E0808181608083E1E83E
:102D2000F0E0808182608083808181608083E0E840
:102D3000F0E0808181608083E1EBF0E0808184605D
:102D40008083E0EBF0E0808181608083EAE7F0E05F
:102D500080818460808380818260808380818160C3
:102D600080838081806880831092C1000895282F1D
:102D700030E0C9018F5D9E4FFC019491235F3E4F6F
:102D8000F9018491882391F0E82FF0E0EE0FFF1F06
:102D9000E151FF4FA591B491662329F48C91909550
:102DA00089238C9308958C91892B8C930895482FB7
:102DB00050E0CA018B5C9E4FFC012491CA018F5DDB
:102DC0009E4FFC019491435F5E4FFA01349133238F
:102DD000D1F1222331F1233021F4809180008F77CB
:102DE00005C0243031F4809180008F7D8093800075
:102DF00018C0213019F484B58F7704C0223021F433
:102E000084B58F7D84BD0DC0263021F48091B00043
:102E10008F7705C0273029F48091B0008F7D809393
:102E2000B000E32FF0E0EE0FFF1FE750FF4FA5913A
:102E3000B491662329F48C91909589238C930895FD
:102E40008C91892B8C930895682F70E0CB018B5C5B
:102E50009E4FFC012491CB018F5D9E4FFC0144915C
:102E6000635F7E4FFB019491992319F420E030E0D9
:102E700038C0222331F1233021F4809180008F77F4
:102E800005C0243031F4809180008F7D80938000D4
:102E900018C0213019F484B58F7704C0223021F492
:102EA00084B58F7D84BD0DC0263021F48091B000A3
:102EB0008F7705C0273029F48091B0008F7D8093F3
:102EC000B000892F90E0880F991F8D5F9E4FFC0105
:102ED000A591B4918C9120E030E0842311F021E0A1
:102EE00030E0C90108951F920F920FB60F9211247E
:102EF0002F933F934F935F936F937F938F939F9302
:102F0000AF93BF93EF93FF934091C600E091FE0310
:102F1000F091FF03CF01019660E870E00E94BA1EB5
:102F20009C0180910004909101042817390739F021
:102F3000E258FC4F40833093FF032093FE03FF9140
:102F4000EF91BF91AF919F918F917F916F915F9121
:102F50004F913F912F910F900FBE0F901F9018959A
:102F60005F926F927F928F929F92AF92BF92CF9219
:102F7000DF92EF92FF920F931F93CF93DF93EC01B9
:102F80003A014B01413482E458078FE0680780E042
:102F900078070CF07FC060E874E88EE190E0A4014F
:102FA00093010E94EF1E2150304040405040CA0122
:102FB000B90122E030E040E050E00E94EF1E5901EC
:102FC0006A01A6019501209530954095509594E0B1
:102FD000220F331F441F551F9A95D1F760E074E20A
:102FE00084EF90E00E94EF1ECA01B9012FEF30E09C
:102FF00040E050E00E949B1EA40193010E94EF1E3E
:10300000C90181509F4F181619061CF4522E5A946C
:1030100003C055245394521A60E079E08DE390E0A8
:10302000A40193010E94EF1E2150304040405040C7
:10303000CA01B90122E030E040E050E00E94EF1EFA
:10304000209530954095509583E0220F331F441F03
:10305000551F8A95D1F760E074E284EF90E00E94FA
:10306000EF1ECA01B9012FEF30E040E050E00E94AE
:103070009B1EA40193010E94EF1EC90181509F4F26
:10308000181619061CF4822F815002C081E0821BA1
:10309000851500F5E885F98581E090E00A8802C091
:1030A000880F991F0A94E2F7808360E079E08DE34E
:1030B00090E0A40193010E94EF1E21503040404057
:1030C0005040CA01B90122E030E040E050E00E94E7
:1030D000EF1E04C0E885F98510829501EC81FD8121
:1030E0003083EE81FF812083EA85FB85208141E0EA
:1030F00050E0CA010E8402C0880F991F0A94E2F7BB
:10310000282B2083EA85FB852081CA010F8402C019
:10311000880F991F0A94E2F7282B2083EA85FB8504
:103120008081088802C0440F551F0A94E2F7842B5F
:103130008083DF91CF911F910F91FF90EF90DF90EF
:10314000CF90BF90AF909F908F907F906F905F9047
:103150000895DC011296ED91FC911397E058FF4F12
:103160008191919180589F4F20813181821B930BD7
:1031700060E870E00E94BA1E0895CF93DF93DC01EF
:103180001296ED91FC911397EF01CE57DF4F4881D6
:103190005981E058FF4F80819181E058F0408417B9
:1031A000950719F42FEF3FEF0CC0E40FF51F2081B6
:1031B000CA01019660E870E00E94BA1E9983888374
:1031C00030E0C901DF91CF910895FC01A085B18560
:1031D00021898C9190E0022E02C0959587950A94E2
:1031E000E2F780FFF6CF0484F585E02D6083089533
:1031F00088EC91E090930304809302048EE793E0BF
:10320000909305048093040485EC90E09093070468
:103210008093060484EC90E0909309048093080462
:1032200080EC90E090930B0480930A0481EC90E092
:1032300090930D0480930C0486EC90E090930F041F
:1032400080930E0484E08093100483E08093110443
:1032500087E08093120485E08093130481E08093DB
:10326000140408950F931F93CF93DF938C01EB0108
:1032700009C02196D801ED91FC910190F081E02DDB
:10328000C801099568816623A1F7DF91CF911F914D
:103290000F910895EF92FF920F931F93CF93DF93B7
:1032A0008C017B01EA010CC0D7016D917D01D80131
:1032B000ED91FC910190F081E02DC80109952197D5
:1032C000209791F7DF91CF911F910F91FF90EF9091
:1032D0000895DC01ED91FC910190F081E02D0995BC
:1032E0000895DC01ED91FC910280F381E02D0995B8
:1032F00008950F931F938C01DC01ED91FC910190D7
:10330000F081E02D6DE00995D801ED91FC910190DF
:10331000F081E02DC8016AE009951F910F91089591
:103320000F931F938C010E947119C8010E94791993
:103330001F910F9108952F923F924F925F926F923B
:103340007F928F929F92AF92BF92CF92DF92EF9235
:10335000FF920F931F93DF93CF93CDB7DEB7A09764
:103360000FB6F894DEBF0FBECDBF1C016A017B0112
:10337000411551056105710549F4DC01ED91FC91A0
:103380000190F081E02D60E3099554C088249924D0
:103390005401422E55246624772401E010E00C0FDE
:1033A0001D1F080D191DC701B601A30192010E943E
:1033B000CD1EF80160830894811C911CA11CB11CD6
:1033C000C701B601A30192010E94CD1EC901DA0115
:1033D0006C017D01C114D104E104F104F1F681E036
:1033E000E82EF12CEC0EFD1EE80CF91C3E010894B1
:1033F000611C711CD501C4010197A109B1096C01BF
:10340000C818D90814C0F601EE0DFF1D60816A309E
:1034100010F4605D01C0695CD101ED91FC910190F7
:10342000F081E02DC10109950894E108F1086E14BE
:103430007F0449F7A0960FB6F894DEBF0FBECDBF4C
:10344000CF91DF911F910F91FF90EF90DF90CF9080
:10345000BF90AF909F908F907F906F905F904F90B4
:103460003F902F9008952AE00E949B190895EF92B3
:10347000FF920F931F93CF93DF93EC017A018B019F
:1034800077FF0FC0E881F9810190F081E02D6DE2B6
:10349000099510950095F094E094E11CF11C011D34
:1034A000111DCE01B801A7012AE00E949B19DF91EE
:1034B000CF911F910F91FF90EF900895AB01662778
:1034C00057FD6095762F0E94371A08959F92AF920C
:1034D000BF92CF92DF92EF92FF920F931F93CF9301
:1034E000DF93EC017A018B01922ECB01BA0120E02F
:1034F00030E040E050E00E94DA1B882364F4E88169
:10350000F9810190F081E02DCE016DE2099517FB64
:10351000109517F9109520E030E040E05FE3AA2411
:103520000BC0CA01B90120E030E040E251E40E9442
:10353000E11B9B01AC01A394A91498F3C801B70146
:103540000E94FD1A5B016C010E944E1C7B018C01E4
:10355000CE01B801A7010E94331A992029F0CE01AB
:103560006DE471E00E947119C801B7010E947A1CD4
:103570009B01AC01C601B5010E94FC1A20C020E0ED
:1035800030E040E251E40E94CA1D7B018C010E94A0
:10359000491C5B016C01CC24B7FCC094DC2CCE012F
:1035A000B601A5010E94371AC601B5010E947C1C14
:1035B0009B01AC01C801B7010E94FC1A9A949920A2
:1035C000F1F6DF91CF911F910F91FF90EF90DF9077
:1035D000CF90BF90AF909F90089522E00E94661A0E
:1035E00008950F931F938C010E94ED1AC8010E9449
:1035F00079191F910F9108955058BB27AA270ED013
:1036000073C233D230F038D220F031F49F3F11F43E
:103610001EF4F2C10EF4E095E7FBE8C1E92F86D273
:1036200080F3BA17620773078407950718F071F4DF
:103630009EF59EC20EF4E0950B2EBA2FA02D0B0125
:10364000B90190010C01CA01A0011124FF27591BE7
:1036500099F0593F50F4503E68F11A16F040A22FED
:10366000232F342F4427585FF3CF4695379527955E
:10367000A795F0405395C9F77EF41F16BA0B620B5D
:10368000730B840BBAF09150A1F0FF0FBB1F661FA4
:10369000771F881FC2F70EC0BA0F621F731F841FE7
:1036A00048F4879577956795B795F7959E3F08F00D
:1036B000B3CF9395880F08F09927EE0F97958795CC
:1036C00008959F939F77EEE389379E0720F4E8E6FD
:1036D000F0E0BAD109C04BD19058A2EA2AED3FE000
:1036E00049EC5FE39BDF00D20F9007FC90580895F0
:1036F000BCD158F080E891E009F49EEFBDD128F0EC
:1037000040E851E059F45EEF09C076C131C2E92FBB
:10371000E0780CD268F3092E052AC1F32617370783
:103720004807590738F00E2E07F8E02569F0E02524
:10373000E0640AC0EF6307F8009407FADB01B901FF
:103740009D01DC01CA01AD01EF934AD0CDD10AD071
:103750005F91552331F02BED3FE049E450FD49ECFA
:103760004CCF0895DF93DD27B92FBF7740E85FE3A3
:103770001616170648075B0710F4D92F04D29F933B
:103780008F937F936F93BDD2ECE7F0E038D1ACD14B
:103790002F913F914F915F9109D2DD2349F09058CD
:1037A000A2EA2AED3FE049EC5FE3D0785D2736DFFF
:1037B000DF919AC1F7D008F481E0089565D1E395CF
:1037C000A4C10CD091C158D140F04FD130F021F4B8
:1037D0005F3F19F00BC15111CCC10EC1A7D198F3B5
:1037E0009923C9F35523B1F3951B550BBB27AA2782
:1037F00062177307840738F09F5F5F4F220F331FF4
:10380000441FAA1FA9F333D00E2E3AF0E0E830D0BF
:1038100091505040E695001CCAF729D0FE2F27D0C2
:10382000660F771F881FBB1F261737074807AB0790
:10383000B0E809F0BB0B802DBF01FF2793585F4F05
:103840002AF09E3F510568F0D1C093C15F3FECF371
:10385000983EDCF3869577956795B795F7959F5FCA
:10386000C9F7880F911D9695879597F90895E1E01E
:10387000660F771F881FBB1F621773078407BA077D
:1038800020F0621B730B840BBA0BEE1F88F7E095D8
:10389000089504D06894B1116CC108954FD188F097
:1038A0009F5790F0B92F9927B751A0F0D1F0660F2C
:1038B000771F881F991F1AF0BA95C9F712C0B13047
:1038C00081F056D1B1E0089553C1672F782F882732
:1038D000B85F39F0B93FCCF3869577956795B39586
:1038E000D9F73EF490958095709561957F4F8F4FF5
:1038F0009F4F0895E89409C097FB3EF490958095FA
:10390000709561957F4F8F4F9F4F9923A9F0F92FA5
:1039100096E9BB279395F695879577956795B79523
:10392000F111F8CFFAF4BB0F11F460FF1BC06F5F09
:103930007F4F8F4F9F4F16C0882311F096E911C01B
:10394000772321F09EE8872F762F05C0662371F03C
:1039500096E8862F70E060E02AF09A95660F771F50
:10396000881FDAF7880F9695879597F90895DF9362
:10397000CF931F930F938B01EC01E9EAF0E03FD066
:10398000B3D09801AE018B01EC0160E070E080E8FB
:103990009FE332DE6CD19801AE010F911F91CF9160
:1039A000DF9104C1990F0008550FAA0BE0E8FEEF64
:1039B00016161706E807F907C0F012161306E407F3
:1039C000F50798F0621B730B840B950B39F40A26EC
:1039D00061F0232B242B252B21F408950A2609F4CA
:1039E000A140A6958FEF811D811D089597F99F67CE
:1039F00080E870E060E008959FEF80EC0895DF9329
:103A0000CF931F930F93FF92EF92DF927B018C0174
:103A1000689405C0DA2EEF01C9D0FE01E894A591A3
:103A20002591359145915591AEF3EF01F7DDFE01FA
:103A30009701A801DA9479F7DF90EF90FF900F914A
:103A40001F91CF91DF9108959F938F937F936F93F1
:103A5000FF93EF939B01AC019DD0EF91FF91CFDFDE
:103A60002F913F914F915F9195C000240A941616B3
:103A7000170618060906089500240A94121613065C
:103A8000140605060895B8CF59D0E8F3E894EFEF8F
:103A9000BB273FE048EC5FE76B3D73078407950762
:103AA00008F1FF279F57B25A6A4D7F40894CF0407A
:103AB00032F4BE556542704F8643FF4F0894EE1FA7
:103AC000915030F0BB0F661F771F881FFF1FEBCF91
:103AD0009EE7882332F0BB0F661F771F881F9A95D9
:103AE000C1F79395E09510C1092E0394000C11F4D1
:103AF000882352F0BB0F40F4BF2B11F460FF04C0C9
:103B00006F5F7F4F8F4F9F4F0895EF93E0FF06C089
:103B1000A2EA2AED3FE049EC5FEB80DDE5DF0F90A4
:103B2000039401FC9058E1EDF0E08ECF57FD9058E2
:103B3000440F551F59F05F3F71F04795880F97FB71
:103B4000991F61F09F3F79F087950895121613062B
:103B50001406551FF2CF4695F1DF08C0161617065A
:103B60001806991FF1CF869571056105089408958F
:103B7000E894BB2766277727CB0197F9089512DFD2
:103B800008F48FEF08959B01AC0160E070E080E8DD
:103B90009FE317CE0BD0A8CF68DF28F06DDF18F0B9
:103BA000952309F023CF28CF1124E3CFBFDFA0F363
:103BB000959FD1F3950F50E0551F629FF001729FC2
:103BC000BB27F00DB11D639FAA27F00DB11DAA1FE1
:103BD000649F6627B00DA11D661F829F2227B00D2E
:103BE000A11D621F739FB00DA11D621F839FA00DB9
:103BF000611D221F749F3327A00D611D231F849F09
:103C0000600D211D822F762F6A2F11249F5750405F
:103C10008AF0E1F088234AF0EE0FFF1FBB1F661FFA
:103C2000771F881F91505040A9F79E3F510570F0B3
:103C3000DDCE9FCF5F3FECF3983EDCF38695779522
:103C40006795B795F795E7959F5FC1F7FE2B880FAE
:103C5000911D9695879597F908959F9315DF0F907D
:103C600007FCEE5F52CF11F40EF4C6CE4DC066DFF6
:103C7000D0F39923D9F3CEF39F57550B87FF54D038
:103C800056959795B0E020F4660F771F881FBB1FED
:103C90001F930F9300249001A0018001F001A0E880
:103CA0000E0F1F1F0A1E511D601B710B8009B50BE3
:103CB00048F4600F711F801DB51F0E1B1F0B0A0AF1
:103CC000510907C02E0F3F1F4A1F0E0F1F1F0A1E4C
:103CD000511D660F771F881FBB1FA695F795E795A7
:103CE000F8F60617170708065B07211D311D411D51
:103CF0000F911F91B901842F9158880F9695879540
:103D000008959B01AC0146CF9F3F49F0915028F4A4
:103D1000869577956795B7959F5F80389F4F880FF9
:103D20009695879597F9089591505040660F771FA3
:103D3000881FD2F70895629FD001739FF001829F80
:103D4000E00DF11D649FE00DF11D929FF00D839F2A
:103D5000F00D749FF00D659FF00D9927729FB00DC7
:103D6000E11DF91F639FB00DE11DF91FBD01CF01DA
:103D70001124089597FB092E07260AD077FD04D059
:103D800049D006D000201AF4709561957F4F0895B0
:103D9000F6F7909581959F4F0895A1E21A2EAA1BE0
:103DA000BB1BFD010DC0AA1FBB1FEE1FFF1FA217EB
:103DB000B307E407F50720F0A21BB30BE40BF50BE8
:103DC000661F771F881F991F1A9469F76095709571
:103DD000809590959B01AC01BD01CF01089597FBA3
:103DE000092E05260ED057FD04D0D7DF0AD0001CBF
:103DF00038F450954095309521953F4F4F4F5F4F88
:103E00000895F6F790958095709561957F4F8F4F47
:103E10009F4F0895AA1BBB1B51E107C0AA1FBB1FE0
:103E2000A617B70710F0A61BB70B881F991F5A9546
:103E3000A9F780959095BC01CD010895EE0FFF1F65
:0C3E40000590F491E02D0994F894FFCF58
:103E4C0044495964003F3F3F002D002A2A2A002193
:103E5C004552523A204D61672064617461002A2AF0
:103E6C002A41697220537461727420636F6D706C97
:103E7C00657465002A2A2A47726F756E6420537424
:103E8C0061727420636F6D706C657465002E000A2E
:103E9C00D7A33C000034430000803F0000803F006B
:103EAC0000000000000000000000000000803F0047
:103EBC0000000000000000000000000000803F0037
:103ECC000000000000803F00000040000040400067
:103EDC000080400000A0400000C0400000E0400016
:103EEC0000004101000000B442010607030001027A
:103EFC000100FFFFFFFF0100FFFF0100FFFFFFFFBD
:0E3F0C00FFFFF4FD00000000E51832194A190D
:00000001FF
