:100000000C9488000C94B0000C94B0000C94B000D8
:100010000C94B0000C94B0000C94B0000C94050843
:100020000C94B0000C94B0000C94F8070C94B00041
:100030000C94B0000C94B0000C94B0000C94B00080
:100040000C9475170C94B0000C946C190C94B000BF
:100050000C94B0000C94C2050C94B0000C94B00049
:100060000C94B0000C94B000084AD73B3BCE016E14
:1000700084BCBFFDC12F3D6C74319ABD56833DDAFF
:100080003D00C77F11BED9E4BB4C3E916BAAAABE0E
:10009000000000803F05A84CCDB2D44EB93836A937
:1000A000020C50B9918688083CA6AAAA2ABE000074
:1000B00000803F00000000240027002A000000000C
:1000C00000250028002B0000000000230026002946
:1000D00000040404040404040402020202020203F1
:1000E00003030303030102040810204080010204FB
:1000F000081020010204081020000000070002017F
:100100000000030406000000000000000000F11AD7
:1001100011241FBECFEFD8E0DEBFCDBF12E0A0E0BC
:10012000B1E0ECEFF0E402C005900D92AE3CB107F7
:10013000D9F715E0AEECB2E001C01D92A836B107C8
:10014000E1F711E0C0E1D1E004C02297FE010E9476
:100150006D20CE30D107C9F70E946E170C947C2019
:100160000C9400002F923F925F926F927F928F9239
:100170009F92AF92BF92CF92DF92EF92FF920F9336
:100180001F93CF93DF938C011B01EA016115710569
:1001900019F0FB0191838083209749F0CE010297EB
:1001A000839728F020E030E040E050E0F6C0F8010E
:1001B000A1908F018A2D90E00E947120892BB9F7C0
:1001C000FDE2AF1631F4F801A1908F01552453944C
:1001D00007C0FBE2AF1619F4F801A1908F01552476
:1001E000209719F0C031D105C1F4F0E3AF1679F4CE
:1001F000F8018081883711F0883549F4F801A18031
:100200000E5F1F4FF2E05F2AC0E1D0E006C02097EA
:1002100021F480E3A816E9F427C0C830D10531F1F4
:10022000C930D10524F4C230D10531F50CC0CA3033
:10023000D10589F0C031D105F9F4C12CD12CE12CC4
:10024000B8E0FB2E28C0C12CD12CE12CA0E4FA2E62
:1002500022C0CAE0D0E0FCECCF2EFCECDF2EFCECA0
:10026000EF2EFCE0FF2E17C0C8E0D0E0C12CD12C4F
:10027000E12CE0E1FE2E0FC09E01442737FD4095A2
:10028000542F60E070E080E090E80E941A20C901DD
:10029000DA016C017D0120E030E040E050E060E0F8
:1002A0003E01882477FC8094982C70EDB72EBA0C10
:1002B000E9E0EB1570F48A2D81548A3118F499EC39
:1002C000B92E06C08A2D81568A3150F589EAB82E9A
:1002D000BA0C8B2D90E08C179D0714F56F3FE1F061
:1002E000C216D306E406F506B0F0CA01B901A401AE
:1002F00093010E94E81F9B01AC012B0D311D411D94
:10030000511D2130F0E03F07F0E04F07F0E85F07B4
:1003100010F461E001C06FEFF801A1908F01C5CF2B
:100320002114310481F0662331F001501040F101B5
:100330001183008308C051FE1AC002501040F10121
:100340001183008314C067FF12C050FC05C02FEF5B
:100350003FEF4FEF5FE704C020E030E040E050E8BF
:1003600082E290E0909367058093660516C050FE88
:1003700008C050954095309521953F4F4F4F5F4FA6
:100380000CC057FF0AC082E290E09093670580930B
:1003900066052FEF3FEF4FEF5FE7B901CA01DF912D
:1003A000CF911F910F91FF90EF90DF90CF90BF9072
:1003B000AF909F908F907F906F905F903F902F9025
:1003C0000895FC0188279927E89421912032E9F3C8
:1003D000293010F02E30C8F32B3241F02D3239F491
:1003E000689404C00E94BD02820F911D2191205388
:1003F0002A30C0F31EF4909581959F4F0895FB011C
:10040000DC0101900D920020E1F70895FB01DC0171
:100410004150504030F08D910190801919F4002026
:10042000B9F7881B990B0895009731F4DA018D9183
:100430009C91009709F40EC0DC01FB013D912191D4
:10044000222319F03217C9F3FACF332331F4DA013A
:100450001D921C928827992708951197AF93BF93F7
:10046000FB013D912191321771F4332321F4882748
:100470009927119702C01E921196FA01A193B08399
:100480009F918F910895222369F7EACFBF92CF926F
:10049000DF92EF92FF920F931F937B018C01FB0180
:1004A0000995B82EC8010196F7010995C82EC80113
:1004B0000296F7010995D82EC8010396F701099510
:1004C000982F6B2D7C2D8D2D1F910F91FF90EF900C
:1004D000DF90CF90BF900895DF92EF92FF920F933D
:1004E0001F937B018C01FB010995D82EC801019651
:1004F000F7010995982F8D2D1F910F91FF90EF9087
:10050000DF900895BF92CF92DF92EF92FF920F9308
:100510001F93D52EC62EB72E79018C01642FF901B9
:100520000995C80101966D2DF7010995C80102963C
:100530006C2DF7010995C80103966B2DF7010995FC
:100540001F910F91FF90EF90DF90CF90BF90089593
:10055000DF92EF92FF920F931F93D72E7A018C01B7
:10056000FA010995C80101966D2DF70109951F91B2
:100570000F91FF90EF90DF9008957AE0979F902D74
:10058000879F802D910D112408959C01F999FECF2C
:1005900032BD21BDF89A80B508959C01F999FECF2E
:1005A0001FBA32BD21BD60BD0FB6F894FA9AF99A10
:1005B0000FBE08952F923F924F925F926F927F925B
:1005C0008F929F92AF92BF92CF92DF92EF92FF9263
:1005D0000F931F937B018C0119012A010E94061FB2
:1005E0002091C2043091C3044091C4045091C504C9
:1005F0000E947C1C5B016C0120E030E040E251EC89
:100600000E94421D88235CF40F2EF0E0AF2EF0E034
:10061000BF2EF0E2CF2EF1ECDF2EF02D14C0C6017C
:10062000B50120E030E040E251E40E94FB1E1816C4
:1006300054F40F2EF0E0AF2EF0E0BF2EF0E2CF2EFC
:10064000F1E4DF2EF02DA092C204B092C304C09258
:10065000C404D092C504C801B7012AE939E949E1C7
:100660005FE30E94061F7B018C01C601B5012FE8E4
:1006700032EC45EF5DE30E94061F3B014C01C801CF
:10068000B701A40193010E947C1C7B018C01209185
:10069000BA043091BB044091BC045091BD040E9447
:1006A0007B1CA20191010E94491D5B016C016093BA
:1006B000BE047093BF048093C0049093C104E09281
:1006C000BA04F092BB040093BC041093BD04C801AB
:1006D000B7012AE939E949E15FE30E94061FA40155
:1006E00093010E947C1C7B018C01C601B50120E0B6
:1006F00030E040E050E00E94061F9B01AC01C801C1
:10070000B7010E947C1C5B016C0120E030E044E3F7
:1007100052EC0E94421D88231CF463ED7FEF11C050
:10072000C601B50120E030E044E352E40E94FB1E24
:1007300018161CF46DE270E004C0C601B5010E94F9
:10074000B11DCB011F910F91FF90EF90DF90CF90E3
:10075000BF90AF909F908F907F906F905F904F90E1
:100760003F902F9008958F929F92AF92BF92CF9219
:10077000DF92EF92FF920F931F93CF93DF934C0181
:100780007A01EC01C61BD70BBE01882777FD809547
:10079000982F0E94E41D5B016C010027F7FC009577
:1007A000102FC801B7010E94E41D20E030E04AE7A5
:1007B00054E40E94491D9B01AC01C601B5010E9491
:1007C000061F2091B0043091B1044091B2045091C1
:1007D000B3040E947C1C7B018C0120E030E040E0EF
:1007E00050E00E94421D88235CF40F2EF0E0EF2EB3
:1007F000F0E0FF2EF0E00F2FF0E01F2FF02D14C0DF
:10080000C801B70120E030E04CE852E40E94FB1E32
:10081000181654F40F2EF0E0EF2EF0E0FF2EFCE857
:100820000F2FF2E41F2FF02DE092B004F092B104EC
:100830000093B2041093B304BE01660F771F6C0FD0
:100840007D1F882777FD8095982F0E94E41DA801C1
:1008500097010E947C1C0E94B11D882777FD80951E
:10086000982F0E94E41D7B018C01B401882777FD3D
:100870008095982F0E94E41D20E030E040E450E491
:100880000E94061F9B01AC01C801B7010E947C1C9D
:100890000E94B11D6635710514F065E570E0EB014D
:1008A00077FF02C0C0E0D0E0D093B904C093B80491
:1008B0006091B4047091B5048091B6049091B7042E
:1008C00026E636E646E65FE30E94061F7B018C01C2
:1008D000BE01882777FD8095982F0E94E41D2DEC9E
:1008E0003CEC4CEC5DE30E94061F9B01AC01C8018F
:1008F000B7010E947C1C6093B4047093B50480938C
:10090000B6049093B7040E94B61DDC01CB01DF91C1
:10091000CF911F910F91FF90EF90DF90CF90BF90FC
:10092000AF909F908F900895AF92BF92CF92DF9239
:10093000EF92FF920F931F937A01AA2797FDA0953C
:10094000BA2FBC01CD010E94E41D5B016C010027A0
:10095000F7FC0095102FC801B7010E94E41D20E0AC
:1009600030E04AE754E40E94491D9B01AC01C601F6
:10097000B5010E94061F23E333E343EB5EE30E94CD
:10098000061F2091AA043091AB044091AC04509111
:10099000AD040E947C1C7B018C0120E030E040E231
:1009A00051EC0E94421D88235CF40F2EF0E0EF2EE4
:1009B000F0E0FF2EF0E20F2FF1EC1F2FF02D14C00E
:1009C000C801B70120E030E040E251E40E94FB1E84
:1009D000181654F40F2EF0E0EF2EF0E0FF2EF0E2A8
:1009E0000F2FF1E41F2FF02DE092AA04F092AB0438
:1009F0000093AC041093AD04C601B50123E333E3C7
:100A000043EB5EE30E94061F0E94B11D882777FD1D
:100A10008095982F0E94E41DA80197010E947C1CDC
:100A20000E94B11D6A31710514F069E170E08FEF29
:100A3000673E780714F467EE7FEF7093AF0460931E
:100A4000AE04CB011F910F91FF90EF90DF90CF90FC
:100A5000BF90AF900895AF92BF92CF92DF92EF9286
:100A6000FF920F931F937B01AA2797FDA095BA2FA2
:100A7000BC01CD010E94E41D5B016C010027F7FC65
:100A80000095102FC801B7010E94E41D20E030E05E
:100A90004AE754E40E94491D9B01AC01C601B5011F
:100AA0000E94061F23E333E343EB5EE30E94061F2D
:100AB0002091A4043091A5044091A6045091A7046C
:100AC0000E947C1C7B018C0120E030E040E251EC74
:100AD0000E94421D88235CF40F2EF0E0EF2EF0E020
:100AE000FF2EF0E20F2FF1EC1F2FF02D14C0C801E4
:100AF000B70120E030E040E251E40E94FB1E1816EE
:100B000054F40F2EF0E0EF2EF0E0FF2EF0E20F2F66
:100B1000F1E41F2FF02DE092A404F092A5040093BD
:100B2000A6041093A704C601B50126E636E646E200
:100B30005FE30E94061F0E94B11D882777FD809504
:100B4000982F0E94E41DA80197010E947C1C0E941E
:100B5000B11D6A31710514F069E170E08FEF673EF5
:100B6000780714F467EE7FEF7093A9046093A804EC
:100B7000CB011F910F91FF90EF90DF90CF90BF902E
:100B8000AF9008951F920F920FB60F9211248F937A
:100B900081E08093EC028F910F900FBE0F901F9019
:100BA0001895EF92FF920F931F9360919C027091A2
:100BB0009D0280919E0290919F0220E030E84FEFCD
:100BC00053E40E947B1C20E030E044EB52E40E949E
:100BD000061F7B018C016091ED027091EE02882767
:100BE00077FD8095982F0E94E41D9B01AC01C80100
:100BF000B7010E94491D0E94B11DCB011F910F91A9
:100C0000FF90EF900895EF92FF920F931F936091E2
:100C1000A0027091A1028091A2029091A30220E013
:100C200030E84FEF53E40E947B1C20E030E044EBBF
:100C300052E40E94061F7B018C016091ED027091CD
:100C4000EE02882777FD8095982F0E94E41D9B0176
:100C5000AC01C801B7010E94491D0E94B11DCB0122
:100C60001F910F91FF90EF9008950F931F930E9493
:100C700003068C010E94D10522273327201B310B4C
:100C8000281B390B8FEF273838071CF424EC3FEF73
:100C90000CC02A3731051CF02CE330E006C0C90136
:100CA00062E070E00E9407209B01C9011F910F9133
:100CB00008950F931F930E9403068C010E94D10593
:100CC0009801281B390BC9013FEF873893071CF4A3
:100CD00024EC3FEF0BC08A3791051CF02CE330E089
:100CE00005C062E070E00E9407209B01C9011F91CE
:100CF0000F910895EF92FF920F931F930E94350674
:100D00009C011816190624F48B3091055CF506C079
:100D100088279927821B930B0B9724F560E070E8D6
:100D20008FEF93E42091A4023091A5024091A60296
:100D30005091A7020E947B1C7B018C0120E030E0D7
:100D400040E050E00E94FB1E18161CF4C801B701D9
:100D500003C0C801B70190580E94B11D7093EE0204
:100D60006093ED021F910F91FF90EF900895EF9225
:100D7000FF920F931F938091EC02813009F033C1F1
:100D80001092EC0220917800909179008091EB0212
:100D90008230B9F1833030F4882359F0813009F082
:100DA000DBC01BC0833009F45EC0853009F0D4C0BD
:100DB0008AC0792F60E030E0622B732B882777FDA3
:100DC0008095982F0E94E41D60939C0270939D0271
:100DD00080939E0290939F02BFC0792F60E030E025
:100DE000622B732B882777FD8095982F0E94E41D36
:100DF0006093A0027093A1028093A2029093A30239
:100E0000ABC0792F60E030E0622B732B882777FD31
:100E10008095982F0E94E41D24EA30E74DE75FE3B8
:100E20000E94061F7B018C016091A4027091A502B3
:100E30008091A6029091A7022AE037ED43E25CE39D
:100E40000E94061F9B01AC01C801B7010E947C1CD7
:100E50006093A4027093A5028093A6029093A702C8
:100E60000E947A0679C0792F60E030E0622B732B04
:100E7000882777FD8095982F0E94E41D23E333E3B4
:100E800043E75FE30E94061F7B018C016091A8028B
:100E90007091A9028091AA029091AB022DEC3CECDA
:100EA0004CE45DE30E94061F9B01AC01C801B70141
:100EB0000E947C1C6093A8027093A9028093AA02EE
:100EC0009093AB0249C0792F60E030E0622B732B26
:100ED000882777FD8095982F0E94E41D24EA30E74B
:100EE0004DE75FE30E94061F7B018C016091AC021D
:100EF0007091AD028091AE029091AF022AE037ED81
:100F000043E25CE30E94061F9B01AC01C801B701EC
:100F10000E947C1C6093AC027093AD028093AE0281
:100F20009093AF0220E030E249E950E40E94061FAE
:100F300027E936E946E95EE30E94491D20E030E0FA
:100F40004AE754E40E94491D6093220370932303EF
:100F500080932403909325032091F3023091F402AF
:100F60002115310551F08091EB02833031F42F5F70
:100F70003F4F3093F4022093F3028091F30290915B
:100F8000F4020597B1F48091EB02833091F4609103
:100F9000A8027091A9028091AA029091AB020E94CE
:100FA000B11D7093F0026093EF021092F402109260
:100FB000F3028091EB028F5F8093EB02863010F09A
:100FC0001092EB0280919B028295880F880F807CA3
:100FD0009091EB029770892B80937C0080917A002E
:100FE000806480937A001F910F91FF90EF90089595
:100FF0001F920F920FB60F9211241092B200289AEE
:101000000F900FBE0F901F9018951F920F920FB662
:101010000F92112428980F900FBE0F901F901895D3
:101020009C0170E08617970714F58091940488233B
:10103000F1F481E08093940420910B032F5F809161
:10104000B202821710F42091B40220930B03F99995
:10105000FECFF999FECF1FBA8AE090E092BD81BD24
:1010600020BD0FB6F894FA9AF99A0FBE0895621748
:10107000730714F4109294040895CF93DF939C01A6
:101080008091B5029091B6022817390709F44AC039
:101090003093B6022093B502E90153E0CC0FDD1F77
:1010A0005A95E1F7220F331FC20FD31F2E96F999DD
:1010B000FECFCE0165EC72E00E9446020E94E41D64
:1010C00020E034E244E759E40E94491D609318038C
:1010D0007093190380931A0390931B032496F99934
:1010E000FECFCE0165EC72E00E9446020E94E41D34
:1010F00020E034E244E759E40E94491D60931C0358
:1011000070931D0380931E0390931F03F999FECFE4
:10111000CE01049665EC72E00E946C02909321036C
:1011200080932003DF91CF910895F999FECF81E05C
:1011300090E065EC72E00E946C029093F002809364
:10114000EF02F999FECF8CE090E065EC72E00E942E
:101150006C0290930D0380930C030895F999FECFD0
:1011600012BC11BCF89A80B58093060381E090E030
:1011700065EC72E00E946C029093F0028093EF02A3
:10118000F999FECF83E090E092BD81BDF89A80B5D9
:101190008093B002F999FECF84E090E092BD81BDCA
:1011A000F89A80B58093B10285E090E065EC72E03A
:1011B0000E946C02909308038093070387E090E0FD
:1011C00065EC72E00E946C0290930A03809309031D
:1011D000F999FECF89E090E092BD81BDF89A80B583
:1011E0008093B202F999FECF8BE090E092BD81BD71
:1011F000F89A80B58093B3020895F999FECF8EE0F6
:1012000090E065EC72E00E9446020E94E41D20E03E
:1012100034E244E759E40E94491D60930E03709341
:101220000F038093100390931103F999FECF82E18D
:1012300090E065EC72E00E9446020E94E41D20E00E
:1012400034E244E759E40E94491D6093120370930D
:1012500013038093140390931503F999FECF8CE048
:1012600090E065EC72E00E946C029093170380930B
:10127000160390930D0380930C030895CF93DF938F
:1012800083E595E060E071E00E94621B6091B2022C
:1012900083E595E070E00E946B1CC0E0D0E055C093
:1012A000CE010E943D0883E595E0BE010E94631CCB
:1012B00083E595E06AE071E00E94621B609118038B
:1012C0007091190380911A0390911B0320E034E27E
:1012D00044E759E40E94061F0E94B11DAB01BC0106
:1012E00083E595E00E943C1C83E595E061E171E0B7
:1012F0000E94621B60911C0370911D0380911E036C
:1013000090911F0320E034E244E759E40E94061F55
:101310000E94B11DAB01BC0183E595E00E943C1C1D
:1013200083E595E068E171E00E94621B6091200313
:101330007091210383E595E00E942E1C68EC70E01B
:1013400080E090E00E94CB1721968091B20290E05D
:101350008C179D070CF0A4CF0E94FD0883E595E053
:101360006FE171E00E94621B83E595E06AE071E045
:101370000E94621B60910E0370910F038091100315
:101380009091110320E034E244E759E40E94061FE3
:101390000E94B11DAB01BC0183E595E00E943C1C9D
:1013A00083E595E061E171E00E94621B60911203A8
:1013B00070911303809114039091150320E034E29F
:1013C00044E759E40E94061F0E94B11DAB01BC0115
:1013D00083E595E00E943C1C83E595E068E171E0BF
:1013E0000E94621B609116037091170383E595E0DC
:1013F0000E942E1C80E090E00E943D0868EB7BE09C
:1014000080E090E00E94CB17DF91CF910895EF929A
:10141000FF920F931F938091990290919A02892BCA
:1014200009F058C0E090D602F090D7020091D8029F
:101430001091D9026091070370910803882777FD06
:101440008095982F0E94E41D9B01AC01C801B70153
:101450000E94FB1E181694F4C801B7010E94B11D2A
:101460009B017093080360930703F999FECF85E011
:1014700090E0B9014DEC52E00E94A802E090DA023F
:10148000F090DB020091DC021091DD026091090313
:1014900070910A03882777FD8095982F0E94E41D9C
:1014A0009B01AC01C801B7010E94FB1E181694F401
:1014B000C801B7010E94B11D9B0170930A0360939C
:1014C0000903F999FECF87E090E0B9014DEC52E0B5
:1014D0000E94A8021F910F91FF90EF9008956091D4
:1014E000D6027091D7028091D8029091D9020E94C1
:1014F000B61D70930D0360930C0310920B03F999C2
:10150000FECFF999FECF1FBA8AE090E092BD81BD6F
:1015100010BC0FB6F894FA9AF99A0FBEF999FECF5B
:101520006091EF027091F00281E090E04DEC52E0AA
:101530000E94A802F999FECF60910C0370910D03EF
:101540008CE090E04DEC52E00E94A802F999FECFA9
:101550006091CE027091CF028091D0029091D10221
:1015600020E034E244E759E40E94061F0E94B11DC6
:10157000AB01BC018EE090E02DEC32E00E948202D3
:10158000F999FECF6091D2027091D3028091D4027A
:101590009091D50220E034E244E759E40E94061F0E
:1015A0000E94B11DAB01BC0182E190E02DEC32E064
:1015B0000E94820208958091C1029091C20290938C
:1015C0000D0380930C0310920B03F999FECF209129
:1015D000B402F999FECF1FBA8AE090E092BD81BDB6
:1015E00020BD0FB6F894FA9AF99A0FBEF999FECF7A
:1015F0006091EF027091F00281E090E04DEC52E0DA
:101600000E94A802F999FECF6091C1027091C202B6
:101610008CE090E04DEC52E00E94A802F999FECFD8
:101620006091B9027091BA028091BB029091BC02A4
:1016300020E034E244E759E40E94061F0E94B11DF5
:10164000AB01BC018EE090E02DEC32E00E94820202
:10165000F999FECF6091BD027091BE028091BF02E8
:101660009091C00220E034E244E759E40E94061F52
:101670000E94B11DAB01BC0182E190E02DEC32E093
:101680000E94820208950E94BD1720919904309112
:101690009A0440919B0450919C04621B730B840B31
:1016A000950B6B3F71058105910508F4EBC08DE04A
:1016B00061E00E944F1883E595E06CE271E00E94C2
:1016C000621B83E595E060E371E00E94621B60911C
:1016D000CE027091CF028091D0029091D10220E091
:1016E00034E244E759E40E94061F0E94B11DAB0199
:1016F000BC0183E595E00E943C1C83E595E065E331
:1017000071E00E94621B6091D2027091D3028091BD
:10171000D4029091D50220E034E244E759E40E94DB
:10172000061F0E94B11DAB01BC0183E595E00E943C
:101730003C1C83E595E06DE971E00E94621B83E546
:1017400095E061E070E00E94631C83E595E063EA48
:1017500071E00E94621B609104037091050383E5B0
:1017600095E00E94631C83E595E069EA71E00E94C0
:10177000621B609102037091030383E595E00E9470
:10178000631C83E595E06FEA71E00E94621B609143
:101790000B0383E595E070E00E94631C83E595E010
:1017A00065EB71E00E94621B6091B20283E595E0F7
:1017B00070E00E94631C83E595E065E671E00E949D
:1017C000621B6091B5027091B60283E595E00E94BC
:1017D000631C83E595E06BE671E00E94621B6091FB
:1017E000FE027091FF0283E595E00E94281C83E5CC
:1017F00095E06BEB71E00E94621B6091F6027091C4
:10180000F70283E595E00E94631C83E595E061ECB7
:1018100071E00E94621B6091F50283E595E070E043
:101820000E94631C83E595E067EC71E00E94621BF7
:101830006091F8027091F90283E595E00E94631CC3
:1018400083E595E06EEC71E00E94621B6091990265
:1018500070919A0283E595E00E94631C83E595E010
:101860006DE771E00E94811B0E94BD17609399048F
:1018700070939A0480939B0490939C048DE060E0A5
:101880000E944F180895CF92DF92EF92FF920F932C
:101890001F93CF93DF9384E061E00E942F1884E0D0
:1018A00061E00E944F18C0E0D0E074E3C72E78E0FA
:1018B000D72E08EB1BE06CE3E62E6FE0F62EC1306E
:1018C000D10591F0C230D1051CF4209741F026C01B
:1018D000C230D10591F0C330D10501F517C0F092A7
:1018E0008900E092880004C0D0928900C0928800EC
:1018F00010938B0000938A0011C01093890000930D
:101900008800F0928B00E0928A0008C01093890052
:1019100000938800D0928B00C0928A0060E273E04E
:1019200080E090E00E94CB172196C430D10539F6B3
:1019300088EB9BE0909389008093880090938B00C4
:1019400080938A0084E060E00E944F1884E060E0A9
:101950000E942F18DF91CF911F910F91FF90EF9070
:10196000DF90CF9008958AE060E00E944F188AE0EF
:1019700061E00E942F1889E060E00E944F1889E022
:1019800061E00E942F1882EA809380008AE18093B0
:10199000810088EB9BE0909389008093880090936E
:1019A0008B0080938A0080E49CE990938700809369
:1019B0008600EFE6F0E080818062808392E0909381
:1019C000B00085E08093B1008AE88093B3009093E3
:1019D00070007894089583E061E028E833E140E006
:1019E00050E00E94EB18CB01672B21F48091950405
:1019F0009091960490939604809395042091FC0214
:101A00003091FD02281B390BC901089582E061E085
:101A100028E833E140E050E00E94EB18CB01672B4F
:101A200021F4809197049091980490939804809366
:101A300097042091FA023091FB02281B390BC9014F
:101A400008956F927F928F929F92AF92BF92CF92A2
:101A5000DF92EF92FF920F931F93CF93DF930E9439
:101A6000BD172091E3023091E402EB01C21BD30BBE
:101A7000C531D10508F409C28091990290919A026A
:101A8000892B09F0A9C00E9435067C2E6D2E20916D
:101A9000F6023091F702281B390B8091B00299278A
:101AA00087FD9095A901481B590BCA0160E0AE0162
:101AB0000E9494044C01A090F802B090F9020E9498
:101AC00035069C011816190634F4B901882777FDEC
:101AD0008095982F08C066277727681B790B882781
:101AE00077FD8095982F0E94E41D2AE939E949E99C
:101AF0005EE30E94061F6B017C010E9459060027CD
:101B00001127081B190B8091B102992787FD909529
:101B1000081B190BB501882777FD8095982F0E9427
:101B2000E41DA70196010E947C1C0E94B11DC80102
:101B3000860F971F672D762D0E942B057C018AE565
:101B400090E0881999099C01442737FD4095542F4E
:101B5000253B31054105510524F024EB30E040E000
:101B600050E0CA01B90157FF04C060E070E080E0B6
:101B700090E024E130E040E050E00E94E81F605532
:101B80007B4F70938900609388008AE590E08E19FE
:101B90009F099C01442737FD4095542F253B310573
:101BA0004105510524F024EB30E040E050E0CA014B
:101BB000B90157FF04C060E070E080E090E024E1EC
:101BC00030E040E050E00E94E81F60557B4F70938A
:101BD0008B0060938A00C0C00E94060D181619067B
:101BE0001CF40E94060D05C00E94060D909581957B
:101BF0009F4F4A9784F40E94EB0C181619061CF4A8
:101C00000E94EB0C05C00E94EB0C909581959F4FB4
:101C10004A970CF4D8C00E94060D7C010E9435063C
:101C2000CC24DD24C81AD90A8091B002992787FDF7
:101C30009095C81AD90A0027F7FC0095102FC80103
:101C4000B7010E94E41D20E030E040E05FE30E9425
:101C5000061F0E94B11DC601860F971F60E0AE01EE
:101C60000E9494045C010E94EB0C7C010E945906C6
:101C7000CC24DD24C81AD90A8091B102992787FDA6
:101C80009095C81AD90A0027F7FC0095102FC801B3
:101C9000B7010E94E41D20E030E040E05FE30E94D5
:101CA000061F0E94B11DC601860F971FBE010E942C
:101CB0002B057C018AE590E08A199B099C01442749
:101CC00037FD4095542F253B31054105510524F042
:101CD00024EB30E040E050E0CA01B90157FF04C0F6
:101CE00060E070E080E090E024E130E040E050E02F
:101CF0000E94E81F60557B4F7093890060938800B5
:101D00008AE590E08E199F099C01442737FD409594
:101D1000542F253B31054105510524F024EB30E0DB
:101D200040E050E0CA01B90157FF04C060E070E034
:101D300080E090E024E130E040E050E00E94E81FC5
:101D400060557B4F70938B0060938A0083E290E034
:101D50009093F2028093F1020091F1021091F2024D
:101D60006091A8027091A9028091AA029091AB02A1
:101D70000E94B11D9B01AC018091EF029091F00295
:101D8000281B390BC801B901AE010E94B30380932F
:101D9000F50290E0A0E0B0E085369105A105B1051F
:101DA00024F084E690E0A0E0B0E087578093B30091
:101DB0000E94BD176093E3027093E4028093E502F2
:101DC0009093E60262C00E943506909581959F4FE0
:101DD00060E0AE010E9494048C010E945906909527
:101DE00081959F4FBE010E942B057C018AE590E002
:101DF000801B910B9C01442737FD4095542F253BB8
:101E000031054105510524F024EB30E040E050E07D
:101E1000CA01B90157FF04C060E070E080E090E0C3
:101E200024E130E040E050E00E94E81F60557B4F25
:101E300070938900609388008AE590E08E199F096D
:101E40009C01442737FD4095542F253B3105410522
:101E5000510524F024EB30E040E050E0CA01B90124
:101E600057FF04C060E070E080E090E024E130E0E3
:101E700040E050E00E94E81F60557B4F70938B005C
:101E800060938A0083E090E063CFDF91CF911F9150
:101E90000F91FF90EF90DF90CF90BF90AF909F9009
:101EA0008F907F906F9008952F923F924F925F9204
:101EB0006F927F928F929F92AF92BF92CF92DF925A
:101EC000EF92FF920F931F93DF93CF9300D000D038
:101ED000CDB7DEB73B014C0119012A01C801B7019A
:101EE000A40193010E947B1C25E33AEF4EE85CE3DA
:101EF0000E94061F20E030E040E05FE30E94061FE2
:101F00000E94691F9B01AC010E94061F69837A83AE
:101F10008B839C83C401B30125E33AEF4EE85CE375
:101F20000E94061F0E94461D3B014C01C801B701DB
:101F300025E33AEF4EE85CE30E94061F0E94461D2F
:101F40009B01AC01C401B3010E94061F3B014C017F
:101F5000C601B501A20191010E947B1C25E33AEF65
:101F60004EE85CE30E94061F20E030E040E05FE3C3
:101F70000E94061F0E94691F7B018C01C401B301EE
:101F8000A80197010E94061FA80197010E94061F41
:101F90009B01AC0169817A818B819C810E947C1CB0
:101FA0007B018C010E94731F5B016C0160E070E09B
:101FB00080E89FE3A80197010E947B1C0E94731F89
:101FC0009B01AC01C601B5010E94EF1C9B01AC0155
:101FD0000E947C1C20E73DE642EC5AE40E94061F6A
:101FE0000E94B61DCB010F900F900F900F90CF91D4
:101FF000DF911F910F91FF90EF90DF90CF90BF90F6
:10200000AF909F908F907F906F905F904F903F9098
:102010002F900895AF92BF92CF92DF92EF92FF92EE
:102020000F931F936091CE027091CF028091D002E6
:102030009091D1022091D2023091D3024091D402EA
:102040005091D502E0901803F090190300911A0303
:1020500010911B03A0901C03B0901D03C0901E03A1
:10206000D0901F030E94540F9093FF028093FE02B2
:102070001F910F91FF90EF90DF90CF90BF90AF90A6
:1020800008952F923F924F925F926F927F928F921C
:102090009F92AF92BF92CF92DF92EF92FF920F93F7
:1020A0001F93DF93CF93CDB7DEB728970FB6F89481
:1020B000DEBF0FBECDBF19012A0125E33AEF4EE87E
:1020C0005CE30E94061F3B014C01C801B70125E3F8
:1020D0003AEF4EE85CE30E94061F7B018C01C601CB
:1020E000B501A20191010E947B1C25E33AEF4EE865
:1020F0005CE30E94061F5B016C01C6010E94691F20
:102100001B012C01B701C8010E94461D6D837E830F
:102110008F839887C201B1012D813E814F815885FF
:102120000E94061F1B012C01B301C4010E94461D21
:1021300069837A838B839C83B701C8010E94691FDE
:102140007B018C01B301C4010E94691F3B014C015A
:10215000B501C6010E94461D5B016C0169817A814F
:102160008B819C81A80197010E94061F7B018C0135
:10217000C401B3012D813E814F8158850E94061F05
:10218000A60195010E94061F9B01AC01C801B70181
:102190000E947B1C9B01AC01B101C2010E94EF1C9B
:1021A00021EE3EE245E652E40E94061F7B018C01CF
:1021B00020E030E040E85FE30E94421D181654F032
:1021C000C801B70120E030E044EB53E40E947C1CDE
:1021D0007B018C01C801B7010E94B11DCB0128967B
:1021E0000FB6F894DEBF0FBECDBFCF91DF911F9128
:1021F0000F91FF90EF90DF90CF90BF90AF909F90A6
:102200008F907F906F905F904F903F902F900895A8
:102210002F923F924F925F926F927F928F929F92F6
:10222000AF92BF92CF92DF92EF92FF920F931F93E4
:10223000CF93DF938091E20280FFAFC08E7F8093C7
:10224000E2020E94BD173B014C012090E702309052
:10225000E8024090E9025090EA0280910B0390E07E
:102260000E943D080E940A108091FE029091FF0298
:102270006091B3020E9410086091CE027091CF026B
:102280008091D0029091D1022091D2023091D3025C
:102290004091D4025091D502E0901803F0901903B8
:1022A00000911A0310911B03A0901C03B0901D0312
:1022B000C0901E03D0901F030E9441107C01909398
:1022C0000103809300036091DE027091DF02809130
:1022D000E0029091E1020E94B11DE61AF70A002780
:1022E000F7FC0095102FC801B7010E94E41D7B0187
:1022F0008C0120E030E044E353E40E94FB1E1816FA
:1023000054F4C801B70120E030E044EB53E40E94EC
:102310007B1C7B018C01C801B70120E030E044E365
:1023200053EC0E94421D882354F4C801B70120E0F9
:1023300030E044EB53E40E947C1C7B018C01C8011B
:10234000B7010E94B11D882777FD8095982F0E94C4
:10235000E41D7B018C016218730884089508C40190
:10236000B3010E94E21D20E030E04AE754E40E94FD
:10237000491D9B01AC01C801B7010E94DA0290938C
:10238000F7028093F6020E94BD176093E7027093F4
:10239000E8028093E9029093EA028091E20281FFD1
:1023A0008CC08D7F8093E20260910C0370910D03CD
:1023B00080E090E00E94E21D9B01AC016091D6029A
:1023C0007091D7028091D8029091D9020E947B1C13
:1023D0000E94B11DAC01CB01DA01B7FF04C080E05F
:1023E00090E0A0E0B0E06091200370912103681BB1
:1023F000790B6330710514F062E070E08B018FEFB0
:10240000663F780714F406EF1FEF065F1F4FE801E1
:10241000CC0FDD1FCC0FDD1F0A501040CF31D1058E
:1024200014F0CEE1D0E0D093F202C093F1026091BB
:10243000DA027091DB028091DC029091DD0220E0F3
:1024400030E040E051E40E94421D18162CF028961E
:10245000D093F202C093F102B801882777FD8095EE
:10246000982F0E94E41D20E030E040EC5FE30E94E2
:10247000061F7B018C0120E030E040E651EC0E9419
:10248000421D88231CF462EF7FEF11C0C801B70121
:1024900020E030E040E85FE30E94FB1E18161CF4C9
:1024A00061E070E004C0C801B7010E94B11D7093E3
:1024B000F9026093F8020E94070ADF91CF911F9101
:1024C0000F91FF90EF90DF90CF90BF90AF909F90D3
:1024D0008F907F906F905F904F903F902F900895D6
:1024E0002F923F924F925F926F927F928F929F9224
:1024F000AF92BF92CF92DF92EF92FF920F931F9312
:10250000DF93CF93CDB7DEB72C970FB6F894DEBF2D
:102510000FBECDBFDE011196EDEFF1E086E0019038
:102520000D928150E1F7DE011796E3E0F2E086E0DC
:1025300001900D928150E1F747C38091C302882337
:1025400089F483E595E00E94B61A80932C038432C7
:1025500009F043C310929D0410929F0481E0809380
:10256000C3023BC380919D04882E992483E595E0A6
:102570000E94B61A2CE233E0820E931EF40180838F
:1025800090919D04E92FF0E0E20FF31F80818A30E3
:1025900009F00DC31092C302C901B20145E050E039
:1025A0000E940602009709F0C2C120919F0480E0BA
:1025B00090E0FC01E45DFC4FE0810196EA3269F4B1
:1025C00020939F04845D9C4F60E070E040E150E008
:1025D0000E94B20060939E0406C02E2784369105A7
:1025E00041F720939F0490919E0480919F04981737
:1025F00009F09BC184E494E06CE273E00E94FF0167
:102600006091B7027091B8028CE293E048E253E027
:102610000E94140290932703809326036091B702CF
:102620007091B80280E090E048E253E00E9414020A
:1026300090932703809326036091B7027091B802AC
:1026400080E090E048E253E00E9414029093270358
:10265000809326036091B7027091B80280E090E009
:1026600048E253E00E9414029093270380932603CC
:102670006AE273E04AE050E00E94B200962E872E94
:10268000782E692E80912A0390912B03019660E0A9
:1026900070E04AE050E00E94B2005B016C01692DDD
:1026A000782D872D962D20E137E240E050E00E9402
:1026B000E81F7B018C01EA0CFB1C0C1D1D1D692D04
:1026C000782D872D962D24E630E040E050E00E94E2
:1026D0001A20CA01B9010E94E21D5B016C01C80108
:1026E000B70120E432E44FE050E00E941A200E943B
:1026F000E21D20E03CE742E159E40E94491D9B01B4
:10270000AC01C601B5010E947C1C6093CE0270939F
:10271000CF028093D0029093D1026091B702709162
:10272000B80280E090E048E253E00E941402FC010D
:1027300090932703809326038081833589F48091C9
:10274000CE029091CF02A091D002B091D102B058A8
:102750008093CE029093CF02A093D002B093D10287
:102760006091B7027091B80280E090E048E253E0D7
:102770000E94140290932703809326036AE273E079
:102780004AE050E00E94B200962E872E782E692EE5
:1027900080912A0390912B03019660E070E04AE05B
:1027A00050E00E94B2005B016C01692D782D872DED
:1027B000962D20E137E240E050E00E94E81F7B01C7
:1027C0008C01EA0CFB1C0C1D1D1D692D782D872D1D
:1027D000962D24E630E040E050E00E941A20CA0125
:1027E000B9010E94E21D5B016C01C801B70120E440
:1027F00032E44FE050E00E941A200E94E21D20E0E7
:102800003CE742E159E40E94491D9B01AC01C6012D
:10281000B5010E947C1C6093D2027093D302809316
:10282000D4029093D5026091B7027091B80280E013
:1028300090E048E253E00E941402FC0190932703C9
:10284000809326038081873589F48091D20290910C
:10285000D302A091D402B091D502B0588093D20295
:102860009093D302A093D402B093D5026091B702A3
:102870007091B80280E090E048E253E00E941402B8
:1028800090932703809326030E94E101AA2797FDD6
:10289000A095BA2FBC01CD010E94E41D6093DA021D
:1028A0007093DB028093DC029093DD026091B702AB
:1028B0007091B80280E090E048E253E00E94140278
:1028C00090932703809326030E94E101AA2797FD96
:1028D000A095BA2FBC01CD010E94E41D6093DE02D9
:1028E0007093DF028093E0029093E1028091E20214
:1028F00081608093E2028DE061E00E944F1883E5E1
:1029000095E06BEF71E00E94621B83E595E064E463
:1029100074E00E94811B6AE070E080E090E00E9419
:10292000CB178DE060E00E944F1810929F048CE25C
:1029300093E0B10145E050E00E940602009709F0E3
:102940001BC120919F0480E090E0FC01E45DFC4FFE
:10295000E0810196EA3269F420939F04845D9C4FE4
:1029600060E070E040E150E00E94B20060939E049D
:1029700006C02E278436910541F720939F0490913D
:102980009E0480919F04981709F0F4C084EF93E0AF
:102990006CE273E00E94FF016091B7027091B8028F
:1029A0008CE293E048E253E00E94140290932703E4
:1029B000809326036091B7027091B80280E090E0A6
:1029C00048E253E00E941402909327038093260369
:1029D0006091B7027091B80280E090E048E253E065
:1029E0000E94140290932703809326036091B702FC
:1029F0007091B80280E090E048E253E00E94140237
:102A000090932703809326036091B7027091B802D8
:102A100080E090E048E253E00E9414029093270384
:102A2000809326036091B7027091B80280E090E035
:102A300048E253E00E9414029093270380932603F8
:102A40006091B7027091B80280E090E048E253E0F4
:102A50000E94140290932703809326030E94E101B1
:102A6000181619062CF410929A021092990206C0B8
:102A700021E030E030939A02209399026091B702EE
:102A80007091B80280E090E048E253E00E941402A6
:102A900090932703809326036091B7027091B80248
:102AA00080E090E048E253E00E94140290932703F4
:102AB000809326036091B7027091B80280E090E0A5
:102AC00048E253E00E941402909327038093260368
:102AD0000E94E101AA2797FDA095BA2FBC01CD0164
:102AE0000E94E41D6093D6027093D7028093D802AF
:102AF0009093D90220E030E040E050E00E94421D77
:102B0000882364F480E090E0A0E0B0E08093D602F7
:102B10009093D702A093D802B093D90280919902E2
:102B200090919A02892B19F48CE061E002C08CE04C
:102B300060E00E944F188DE061E00E944F1883E52D
:102B400095E06BEF71E00E94621B83E595E064EF16
:102B500073E00E94811B6AE070E080E090E00E94D8
:102B6000CB178DE060E00E944F188091E2028260F6
:102B70008093E20210929F0480919D0490E020E0F7
:102B800030E0F901E45DFC4F10822F5F3F4F821768
:102B90009307BCF710929D040E94BD176093A00498
:102BA0007093A1048093A2049093A30416C0892F6C
:102BB0008F5F80939D04883C80F010929D0410925A
:102BC0009F041092C30209C02E010894411C511C9D
:102BD000F7E02F2E312C2C0E3D1E83E595E00E9450
:102BE000A21A882309F0A9CC0E94BD172091A00445
:102BF0003091A1044091A2045091A304621B730B75
:102C0000840B950B615D77408040904050F08CE0E4
:102C100060E00E944F1881E090E090939A028093C8
:102C200099022C960FB6F894DEBF0FBECDBFCF91A0
:102C3000DF911F910F91FF90EF90DF90CF90BF90A9
:102C4000AF909F908F907F906F905F904F903F904C
:102C50002F9008950E9470128CE061E00E944F183E
:102C600069E170E080E090E00E94CB178CE060E0CA
:102C70000E944F1869E170E080E090E00E94CB175D
:102C80008091990290919A02892B21F708950E94D0
:102C900008110E94210D0E94B7060E9470120E9426
:102CA000430B8091990290919A02892B21F00E9406
:102CB000060D0E94EB0C08958CE061E00E942F1835
:102CC00083E595E040E855E260E070E00E94A919D4
:102CD00008950F931F938CE061E00E942F1803E585
:102CE00015E0C80140E855E260E070E00E94A919D3
:102CF00068EE73E080E090E00E94CB17C80169E0C5
:102D000072E00E94811B64EF71E080E090E00E941D
:102D1000CB17C8016BE372E00E94811B64EF71E086
:102D200080E090E00E94CB17C80169E472E00E9445
:102D3000811B64EF71E080E090E00E94CB17C80136
:102D400067E572E00E94811B64EF71E080E090E033
:102D50000E94CB170E942A161F910F910895CF93BE
:102D6000DF938DE061E00E942F1882E060E00E9416
:102D70002F1883E060E00E942F1884E060E00E943A
:102D80002F1885E060E00E942F1886E061E00E9425
:102D90004F1886E060E00E942F1887E061E00E94F3
:102DA0002F1887E060E00E944F1888E061E00E94E1
:102DB0002F188BE061E00E942F180E94B30C88EB63
:102DC0009BE0909389008093880090938B00809380
:102DD0008A0089E88093B30010929B0280917A0068
:102DE000886880937A0080917A00806480937A006A
:102DF00082E061E020E23EE440E050E00E94EB1817
:102E00007093FB026093FA0283E061E020E23EE40B
:102E100040E050E00E94EB187093FD026093FC02CA
:102E200081E090E09093F4028093F30286E00E94A8
:102E30009C18892B29F560ED77E080E090E00E94F6
:102E4000CB170E9469160E942A160E94430C0E940A
:102E5000AE080CC00E94430CC0E0D0E00E9470128B
:102E60000E94B7062196C932D105C1F786E00E94BB
:102E70009C18892B79F30E946F0A10920B030AC0E9
:102E80000E945C160E94AE080E9495080E94DB0A10
:102E90000E94FD0883E595E067E672E00E94811BD1
:102EA00083E595E068E672E00E94811B83E595E08A
:102EB0006CE772E00E94811B0E943E09DF91CF9176
:102EC00008950E94AF168091B40280930B0381E0B5
:102ED00090E09093F4028093F30208950E94F51716
:102EE0000E9461170E944716FDCF1F920F920FB6E6
:102EF0000F9211242F933F938F939F93AF93BF9380
:102F00008091CA049091CB04A091CC04B091CD04DF
:102F10003091CE040196A11DB11D232F2D5F2D37B9
:102F200020F02D570196A11DB11D2093CE04809352
:102F3000CA049093CB04A093CC04B093CD048091A9
:102F4000C6049091C704A091C804B091C904019629
:102F5000A11DB11D8093C6049093C704A093C8041B
:102F6000B093C904BF91AF919F918F913F912F91E1
:102F70000F900FBE0F901F9018958FB7F894209167
:102F8000CA043091CB044091CC045091CD048FBF42
:102F9000B901CA010895EF92FF920F931F937B012D
:102FA0008C018FB7F8944091CA045091CB04609182
:102FB000CC047091CD048FBF2FB7F8948091CA04D0
:102FC0009091CB04A091CC04B091CD042FBF841B71
:102FD000950BA60BB70BE816F9060A071B0760F757
:102FE0001F910F91FF90EF900895789484B58260BF
:102FF00084BD84B5816084BD85B5826085BD85B59D
:10300000816085BDEEE6F0E0808181608083E1E84B
:10301000F0E0808182608083808181608083E0E84D
:10302000F0E0808181608083E1EBF0E0808184606A
:103030008083E0EBF0E0808181608083EAE7F0E06C
:1030400080818460808380818260808380818160D0
:1030500080838081806880831092C1000895282F2A
:1030600030E0C9018B519F4FFC0194912F523F4F8B
:10307000F9018491882391F0E82FF0E0EE0FFF1F13
:10308000ED54FF4FA591B491662329F48C9190954E
:1030900089238C9308958C91892B8C930895482FC4
:1030A00050E0CA0187509F4FFC012491CA018B5107
:1030B0009F4FFC0194914F525F4FFA01349133239B
:1030C000D1F1222331F1233021F4809180008F77D8
:1030D00005C0243031F4809180008F7D8093800082
:1030E00018C0213019F484B58F7704C0223021F440
:1030F00084B58F7D84BD0DC0263021F48091B00051
:103100008F7705C0273029F48091B0008F7D8093A0
:10311000B000E32FF0E0EE0FFF1FE354FF4FA59147
:10312000B491662329F48C91909589238C9308950A
:103130008C91892B8C930895682F70E0CB01875078
:103140009F4FFC012491CB018B519F4FFC01449177
:103150006F527F4FFB019491992319F420E030E0E6
:1031600038C0222331F1233021F4809180008F7701
:1031700005C0243031F4809180008F7D80938000E1
:1031800018C0213019F484B58F7704C0223021F49F
:1031900084B58F7D84BD0DC0263021F48091B000B0
:1031A0008F7705C0273029F48091B0008F7D809300
:1031B000B000892F90E0880F991F89539F4FFC0121
:1031C000A591B4918C9120E030E0842311F021E0AE
:1031D00030E0C9010895DF92EF92FF920F931F93A1
:1031E000A82FB0E0CD018B519F4FFC01D490AF527E
:1031F000BF4FFD018491662311F490E001C09D2D25
:103200006FEFE62E6FEFF62E6FEF062F6FE0162FA3
:10321000E222F32204231523682F70E0660F771F44
:1032200069537F4F20E030E040E050E0FB01A59182
:10323000B4910AC02E153F054007510709F440C05C
:103240002F5F3F4F4F4F5F4F8C918D21891791F327
:103250000AC02E153F054007510791F12F5F3F4FE0
:103260004F4F5F4F03C0FB01A591B4918C918D210D
:10327000891779F720E030E040E050E0FB01A591AC
:10328000B49104C02F5F3F4F4F4F5F4F8C918D2102
:103290008917C1F3CA01B9012AE030E040E050E0EB
:1032A0000E94E81F9B01AC01205F3F4F4F4F5F4FD3
:1032B00084E056954795379527958A95D1F704C0B0
:1032C00020E030E040E050E0B901CA011F910F91C9
:1032D000FF90EF90DF9008951F920F920FB60F921C
:1032E00011242F933F934F935F936F937F938F930B
:1032F0009F93AF93BF93EF93FF934091C600E091EC
:103300004F05F0915005CF01019660E870E00E94F2
:1033100007209C018091510590915205281739078B
:1033200039F0E153FB4F40833093500520934F0514
:10333000FF91EF91BF91AF919F918F917F916F918D
:103340005F914F913F912F910F900FBE0F901F9063
:1033500018955F926F927F928F929F92AF92BF92D9
:10336000CF92DF92EF92FF920F931F93CF93DF9351
:10337000EC013A014B01413482E458078FE06807C1
:1033800080E078070CF07FC060E874E88EE190E0A0
:10339000A40193010E943C20215030404040504005
:1033A000CA01B90122E030E040E050E00E943C2038
:1033B00059016A01A60195012095309540955095D7
:1033C00094E0220F331F441F551F9A95D1F760E0F8
:1033D00074E284EF90E00E943C20CA01B9012FEF13
:1033E00030E040E050E00E94E81FA40193010E94F9
:1033F0003C20C90181509F4F181619061CF4522E0B
:103400005A9403C055245394521A60E079E08DE336
:1034100090E0A40193010E943C20215030404040A4
:103420005040CA01B90122E030E040E050E00E9483
:103430003C20209530954095509583E0220F331F16
:10344000441F551F8A95D1F760E074E284EF90E045
:103450000E943C20CA01B9012FEF30E040E050E06B
:103460000E94E81FA40193010E943C20C9018150E1
:103470009F4F181619061CF4822F815002C081E05C
:10348000821B851500F5E885F98581E090E00A88C2
:1034900002C0880F991F0A94E2F7808360E079E008
:1034A0008DE390E0A40193010E943C202150304024
:1034B00040405040CA01B90122E030E040E050E015
:1034C0000E943C2004C0E885F98510829501EC81BA
:1034D000FD813083EE81FF812083EA85FB85208199
:1034E00041E050E0CA010E8402C0880F991F0A947F
:1034F000E2F7282B2083EA85FB852081CA010F840F
:1035000002C0880F991F0A94E2F7282B2083EA85CE
:10351000FB858081088802C0440F551F0A94E2F79A
:10352000842B8083DF91CF911F910F91FF90EF90BB
:10353000DF90CF90BF90AF909F908F907F906F90D3
:103540005F900895DC011296ED91FC911397E0587D
:10355000FF4F8191919180589F4F20813181821B33
:10356000930B60E870E00E9407200895CF93DF93EB
:10357000DC011296ED91FC911397EF01CE57DF4FCE
:1035800048815981E058FF4F80819181E058F04097
:103590008417950719F42FEF3FEF0CC0E40FF51FC8
:1035A0002081CA01019660E870E00E94072099839B
:1035B000888330E0C901DF91CF910895FC01A08597
:1035C000B18521898C9190E0022E02C09595879556
:1035D0000A94E2F780FFF6CF0484F585E02D60833E
:1035E000089588EC92E090935405809353058FECF6
:1035F00094E0909356058093550585EC90E0909368
:1036000058058093570584EC90E090935A05809379
:10361000590580EC90E090935C0580935B0581EC0C
:1036200090E090935E0580935D0586EC90E090932A
:10363000600580935F0584E08093610583E080935B
:10364000620587E08093630585E08093640581E0EF
:103650008093650508950F931F93CF93DF938C019B
:10366000EB0109C02196D801ED91FC910190F08108
:10367000E02DC801099568816623A1F7DF91CF91FC
:103680001F910F910895EF92FF920F931F93CF9385
:10369000DF938C017B01EA010CC0D7016D917D01A4
:1036A000D801ED91FC910190F081E02DC8010995C0
:1036B0002197209791F7DF91CF911F910F91FF9064
:1036C000EF900895DC01ED91FC910280F381E02DF3
:1036D000099508950F931F938C01DC01ED91FC91E6
:1036E0000190F081E02D6DE00995D801ED91FC91FC
:1036F0000190F081E02DC8016AE009951F910F91BA
:1037000008950F931F938C010E94621BC8010E94B1
:103710006A1B1F910F9108952F923F924F925F92D3
:103720006F927F928F929F92AF92BF92CF92DF92D1
:10373000EF92FF920F931F93DF93CF93CDB7DEB736
:10374000A0970FB6F894DEBF0FBECDBF1C016A0173
:103750007B01411551056105710549F4DC01ED91CD
:10376000FC910190F081E02D60E3099554C088241C
:1037700099245401422E55246624772401E010E058
:103780000C0F1D1F080D191DC701B601A3019201E1
:103790000E941A20F80160830894811C911CA11CCE
:1037A000B11CC701B601A30192010E941A20C901F0
:1037B000DA016C017D01C114D104E104F104F1F6D8
:1037C00081E0E82EF12CEC0EFD1EE80CF91C3E0108
:1037D0000894611C711CD501C4010197A109B109AC
:1037E0006C01C818D90814C0F601EE0DFF1D6081E8
:1037F0006A3010F4605D01C0695CD101ED91FC910B
:103800000190F081E02DC10109950894E108F108CB
:103810006E147F0449F7A0960FB6F894DEBF0FBE72
:10382000CDBFCF91DF911F910F91FF90EF90DF906F
:10383000CF90BF90AF909F908F907F906F905F9050
:103840004F903F902F9008952AE00E948C1B08957E
:10385000AB0160E070E00E94241C08950F931F9359
:103860008C01AB0160E070E00E94241CC8010E9442
:103870006A1B1F910F910895EF92FF920F931F9370
:10388000CF93DF93EC017A018B0177FF0FC0E881C2
:10389000F9810190F081E02D6DE209951095009578
:1038A000F094E094E11CF11C011D111DCE01B80142
:1038B000A7012AE00E948C1BDF91CF911F910F91ED
:1038C000FF90EF900895AB01662757FD6095762F26
:1038D0000E943C1C08950F931F938C01AB01662737
:1038E00057FD6095762F0E943C1CC8010E946A1B00
:1038F0001F910F9108955058BB27AA270ED030C2B0
:10390000F0D130F0F5D120F031F49F3F11F41EF4E6
:10391000C0C10EF4E095E7FBB6C1E92F43D280F3B6
:10392000BA17620773078407950718F071F49EF5BC
:103930005BC20EF4E0950B2EBA2FA02D0B01B9013E
:1039400090010C01CA01A0011124FF27591B99F015
:10395000593F50F4503E68F11A16F040A22F232F21
:10396000342F4427585FF3CF469537952795A79571
:10397000F0405395C9F77EF41F16BA0B620B730B18
:10398000840BBAF09150A1F0FF0FBB1F661F771F89
:10399000881FC2F70EC0BA0F621F731F841F48F43E
:1039A000879577956795B795F7959E3F08F0B3CFC4
:1039B0009395880F08F09927EE0F979587950895AE
:1039C00090D158F080E891E009F49EEF91D128F071
:1039D00040E851E059F45EEF09C05BC105C2E92F30
:1039E000E078E0D168F3092E052AC1F326173707DE
:1039F0004807590738F00E2E07F8E02569F0E02552
:103A0000E0640AC0EF6307F8009407FADB01B9012C
:103A10009D01DC01CA01AD01EF934AD0A1D10AD0CA
:103A20005F91552331F02BED3FE049E450FD49EC27
:103A300063CF0895DF93DD27B92FBF7740E85FE3B9
:103A40001616170648075B0710F4D92FD8D19F9395
:103A50008F937F936F9391D2E8E6F0E01DD180D1F0
:103A60002F913F914F915F91DDD1DD2349F0905827
:103A7000A2EA2AED3FE049EC5FE3D0785D274DDF15
:103A8000DF916EC1DCD008F481E0089539D1E3956F
:103A900078C10CD065C12CD140F023D130F021F495
:103AA0005F3F19F0F0C05111A0C1F3C07BD198F372
:103AB0009923C9F35523B1F3951B550BBB27AA27AF
:103AC00062177307840738F09F5F5F4F220F331F21
:103AD000441FAA1FA9F333D00E2E3AF0E0E830D0ED
:103AE00091505040E695001CCAF729D0FE2F27D0F0
:103AF000660F771F881FBB1F261737074807AB07BE
:103B0000B0E809F0BB0B802DBF01FF2793585F4F32
:103B10002AF09E3F510568F0B6C067C15F3FECF3E5
:103B2000983EDCF3869577956795B795F7959F5FF7
:103B3000C9F7880F911D9695879597F90895E1E04B
:103B4000660F771F881FBB1F621773078407BA07AA
:103B500020F0621B730B840BBA0BEE1F88F7E09505
:103B6000089504D06894B11140C1089523D188F01C
:103B70009F5790F0B92F9927B751A0F0D1F0660F59
:103B8000771F881F991F1AF0BA95C9F712C0B13074
:103B900081F02AD1B1E0089527C1672F782F8827B7
:103BA000B85F39F0B93FCCF3869577956795B395B3
:103BB000D9F73EF490958095709561957F4F8F4F22
:103BC0009F4F0895E89409C097FB3EF49095809527
:103BD000709561957F4F8F4F9F4F9923A9F0F92FD3
:103BE00096E9BB279395F695879577956795B79551
:103BF000F111F8CFFAF4BB0F11F460FF1BC06F5F37
:103C00007F4F8F4F9F4F16C0882311F096E911C048
:103C1000772321F09EE8872F762F05C0662371F069
:103C200096E8862F70E060E02AF09A95660F771F7D
:103C3000881FDAF7880F9695879597F90895990F59
:103C40000008550FAA0BE0E8FEEF16161706E80766
:103C5000F907C0F012161306E407F50798F0621B87
:103C6000730B840B950B39F40A2661F0232B242B5C
:103C7000252B21F408950A2609F4A140A6958FEF7B
:103C8000811D811D089597F99F6780E870E060E0CD
:103C900008959FEF80EC0895DF93CF931F930F93C8
:103CA000FF92EF92DF927B018C01689405C0DA2EBF
:103CB000EF01B8D0FE01E894A59125913591459189
:103CC0005591AEF3EF0129DEFE019701A801DA94C8
:103CD00079F7DF90EF90FF900F911F91CF91DF91D7
:103CE000089500240A941616170618060906089562
:103CF00000240A9412161306140605060895C9CF67
:103D000059D0E8F3E894EFEFBB273FE048EC5FE7DA
:103D10006B3D73078407950708F1FF279F57B25A39
:103D20006A4D7F40894CF04032F4BE556542704F79
:103D30008643FF4F0894EE1F915030F0BB0F661F73
:103D4000771F881FFF1FEBCF9EE7882332F0BB0F42
:103D5000661F771F881F9A95C1F79395E09510C14C
:103D6000092E0394000C11F4882352F0BB0F40F489
:103D7000BF2B11F460FF04C06F5F7F4F8F4F9F4FC9
:103D80000895EF93E0FF06C0A2EA2AED3FE049EC78
:103D90005FEBC3DDE5DF0F90039401FC9058E5E98C
:103DA000F0E005C157FD9058440F551F59F05F3F93
:103DB00071F04795880F97FB991F61F09F3F79F04D
:103DC00087950895121613061406551FF2CF4695CF
:103DD000F1DF08C0161617061806991FF1CF869551
:103DE0007105610508940895E894BB276627772735
:103DF000CB0197F9089523DF08F48FEF08959B0115
:103E0000AC0160E070E080E89FE343CE0BD0A8CF28
:103E100068DF28F06DDF18F0952309F034CF39CF33
:103E20001124E3CFBFDFA0F3959FD1F3950F50E0AE
:103E3000551F629FF001729FBB27F00DB11D639F5C
:103E4000AA27F00DB11DAA1F649F6627B00DA11D02
:103E5000661F829F2227B00DA11D621F739FB00DA8
:103E6000A11D621F839FA00D611D221F749F332718
:103E7000A00D611D231F849F600D211D822F762FB1
:103E80006A2F11249F5750408AF0E1F088234AF0AE
:103E9000EE0FFF1FBB1F661F771F881F91505040FA
:103EA000A9F79E3F510570F0EECE9FCF5F3FECF338
:103EB000983EDCF3869577956795B795F795E795E6
:103EC0009F5FC1F7FE2B880F911D9695879597F9F7
:103ED00008959F9315DF0F9007FCEE5F52CF11F40A
:103EE0000EF4D7CE4DC066DFD0F39923D9F3CEF3CD
:103EF0009F57550B87FF54D056959795B0E020F407
:103F0000660F771F881FBB1F1F930F93002490011C
:103F1000A0018001F001A0E80E0F1F1F0A1E511D15
:103F2000601B710B8009B50B48F4600F711F801D79
:103F3000B51F0E1B1F0B0A0A510907C02E0F3F1F8A
:103F40004A1F0E0F1F1F0A1E511D660F771F881F65
:103F5000BB1FA695F795E795F8F60617170708060D
:103F60005B07211D311D411D0F911F91B901842F48
:103F70009158880F9695879508959B01AC0146CF7F
:103F80009F3F49F0915028F4869577956795B795AE
:103F90009F5F80389F4F880F9695879597F9089572
:103FA00091505040660F771F881FD2F708959F9356
:103FB0008F937F936F93FF93EF939B01AC0126DF69
:103FC000EF91FF9169DE2F913F914F915F911ECF4D
:103FD000629FD001739FF001829FE00DF11D649FED
:103FE000E00DF11D929FF00D839FF00D749FF00D79
:103FF000659FF00D9927729FB00DE11DF91F639F1A
:10400000B00DE11DF91FBD01CF011124089597FBEB
:10401000092E07260AD077FD04D049D006D000200B
:104020001AF4709561957F4F0895F6F790958195F4
:104030009F4F0895A1E21A2EAA1BBB1BFD010DC0C4
:10404000AA1FBB1FEE1FFF1FA217B307E407F50748
:1040500020F0A21BB30BE40BF50B661F771F881F24
:10406000991F1A9469F760957095809590959B01BA
:10407000AC01BD01CF01089597FB092E05260ED096
:1040800057FD04D0D7DF0AD0001C38F45095409576
:10409000309521953F4F4F4F5F4F0895F6F790951C
:1040A0008095709561957F4F8F4F9F4F0895AA1B04
:1040B000BB1B51E107C0AA1FBB1FA617B70710F013
:1040C000A61BB70B881F991F5A95A9F78095909545
:1040D000BC01CD010895EE0FFF1F0590F491E02D76
:1040E0000994911106C0803219F089508550D0F79B
:0C40F0000895992788270895F894FFCFC1
:1040FC0023206F662057503A2000204C61743A20E0
:10410C0000204C6F6E3A200020416C743A2000560F
:10411C0069727475616C20486F6D650021212100F6
:10412C004C41543A002C4C4F4E3A002C5350443ACC
:10413C00002C4352543A002C414C543A002C414C24
:10414C00483A002C4D534C3A002C4352533A002C15
:10415C004245523A002C57504E3A002C4453543A94
:10416C00002C4254563A002C5253503A002C2A2A16
:10417C002A002B2B2B002C4153503A005448483A20
:10418C00002C524C4C3A002C5043483A002C5354BF
:10419C00543A002C5253543A002C574C463A002CAB
:1041AC004357503A002C4E57503A002C5245523A35
:1041BC00002C5448483A002C505345543A002C4794
:1041CC0050533A00244D0038310030390041390049
:1041DC00303000503A002C523A002C543A002C53F8
:1041EC003A0020202020202020200024004750527C
:1041FC004D430047504747410024504D544B3331F9
:10420C00342C302C312C302C312C302C302C302CBC
:10421C00302C302C302C302C302C302C302C302CB2
:10422C00302C302C302C302A32380024504D544B4A
:10423C003331332C312A32650024504D544B3330FA
:10424C00312C322A32650024504D544B3232302CF2
:10425C003230302A324300004172647570696C6FE1
:10426C00742121212056322E342E36005741524EC5
:10427C00494E47212047505320454D554C41544FF2
:10428C0052204D4F4445002C000100010080FF439B
:10429C000080FF430080FF430080FF430080FF430A
:1042AC00FC0A031401E703970231424242F9BD377D
:0E42BC004014000100000000DE1A2B1B431B03
:00000001FF
